:05002F000401A1FFFF28
:107631000A00000141A0A1A2A3A4A50A00000441DF
:1076410080089009A00A0A00001041A0A1A2A3A4E9
:10765100A50500A400000202DF01040000000204ED
:047661000000010123
:03000000020034C7
:0300030002716126
:03000B00027193EC
:03001300027179FE
:03001B000271B2BD
:0300230002713136
:10713100C28CC28253AB7FC2AFC2AC7581A9749BB2
:10714100C0E07465C0E032C2AF7F0112547920B54E
:107151001275A8007581A97434C0E07400C0E032D2
:1071610030B5E453AB7FC2AFC2ACC2A87581A9747C
:1071710084C0E07405C0E032C2AF53AB7FC2AFC27E
:10718100ACC2AA7581A974C1C0E07401C0E032D259
:10719100AF32C0E07401251FF51F5012D0E0C28C40
:1071A100C2A97581A974D1C0E07409C0E032D0E0F0
:1071B1003220B526C2AFC0077F0A125479D00730FA
:1071C100B504D2AF801453AB7FC2AFC2ACC2AB75B2
:1071D10081A97437C0E07401C0E032E5BB4470F5A9
:1071E100BB75940075930175960075950075B20095
:1071F10075B12C75B40075B300789A7583028882D5
:10720100E064557018759200759144C2A3D297D26B
:1072110096D292D291D2B0D2B1C2C48022759200DC
:10722100759104D2A3C297C296D292D291D295C23D
:1072310095C295C295C295C295C2B0C2B1D2C4C21F
:1072410085C2A6C284D2A4D295D2B5D2B3D2B2D2CB
:1072510080C284C2C6C286C2C1C287C283C2B4C24E
:0F72610085C2A6C295C295C295D2C5D291D290D0
:10727000D280D292D281C2C2C282C29522127299A7
:10728000126D281200FAC29CC2AC22127299126DC1
:107290002812010DC29CC2AC22E5BB4470F5BB753F
:1072A000940475930175960075950075B21075B1CB
:1072B0002C75B40075B300789A7583028882E064F7
:1072C000557012759200759144C2A3D296D297D28E
:1072D00092D2918010759200759104D2A3C297C288
:1072E00096D292D291D295C2A4D2B5D2B3D2B2D212
:1072F00080C284C2C6C286D2C1C287D283D2B4D26F
:1073000085D2A6D295D2B0D2B1C295C295D2C5D2FD
:10731000C4D291D290D280D292D281C2C2C282C251
:027320009522B4
:100034007581A975A800D28AD288121382EF600351
:1000440012131678A87400F6E5C120E30B20B50856
:1000540020B30578A87455F67581A975A800D28ACD
:10006400D28878A77600D8FCD291C2C51235BAD20C
:10007400C5123E33EF6007740712134A80B2789AB0
:1000840074FF7583018882F01271DC120A1BC28B23
:10009400C28975A800758F00E58F4420F58FD2AB17
:1000A400126D37E58F4440F58FC299C298D29CC235
:1000B400AC123824D295C298C299C289C28BC28D1F
:1000C400C28FC28CC28ED2C4D2C5E58F4440F58F94
:1000D400D2B0D2B1E4D29CF5A8D2ACD2A8D288D204
:1000E400AF0000000000E47A03758782000002007C
:1000F4003412633980FB7FFA125496C2857F301222
:100104005496D2857F0312547978A97600D8FC7866
:1001140092E49000339323237583018882F0120ABA
:100124001B751FD2E444204401F589E444044401CE
:10013400F58822C2AFC2ACC2AB12727D125FF6D296
:1001440020D225120A1B120AB630141BC20DD21279
:100154007F267D007B3F7A00124BE87F267D00D20C
:0701640012C20D124CF7EF6F
:10016B006010C2C57F0212619B7F8090243BD22618
:10017B0080077F80902466C2261260CFD2C5120CF6
:10018B00C5201C0D7583727582EC7FA17B081273E1
:10019B0089D2C57FFA1254797FFA1254797FFA12F9
:1001AB00547902003475C7600000000000000000A5
:1001BB000000000080F212727D126D49D2B1D2B0F4
:1001CB00C207D206C2057F267B00125C7CEB601453
:1001DB00640270107826E6647F70097827E6647FE6
:1001EB00700280C1126D2812727D120A1BD2251269
:1001FB000AB6120CC5301C0280977583727582EC9F
:10020B007FA17B08127389200A0302052902031CB4
:10021B00201E1120110E125FF67F269024541260BF
:10022B00CF0204EE7583727582847507AD7B041261
:10023B00733B78AD7583018882E064CB70230875BE
:10024B0083018882E064C47018087583018882E09A
:10025B0064B4700D087583018882E064A870028015
:10026B000302050F20240302031C7583727582A001
:10027B007507AD7B0A12733BC20DC2127F267D0040
:10028B007B3F7A00124BE8D212C20D7F267D007C99
:10029B00017B017A1B124C4DEF780075830188822C
:0902AB00E078987583018882F067
:1002B4007583727582247507B77B0A12733B758345
:1002C400727582387507C17B0A12733B7583727528
:1002D400824C7507CB7B0A12733BC00078987583F8
:1002E400018882E0D00060307A000ABA010479B74C
:1002F4008009BA020479C1800279CB78AD7B0A7592
:1003040083018882E0F5F07583018982E065F060FD
:10031400030204CE0809DBE7200A0302041A124D83
:1003240062EF600302041AED640D600AED640E705E
:1003340002807802041AC005124D9BC007125FF6B2
:10034400D007D005C0001212D57F261260CF7FC817
:100354001254797FC8125479D007EF600302003435
:10036400D212C20D7F267D007B3F7A00124BE8EF4C
:100374006002802AC20DD2127F267DAD7C9D7B1B3C
:100384007A0C124C78EF600280147FAD7D807B0C78
:100394001262577F817D017880E6FB1260E37FC89B
:1003A4001254797FC8125479020034C0051251AE38
:1003B400C007125FF6D007D0051212D57F2612604F
:1003C400CF7FC81254797FC8125479D212C20D7FDC
:1003D400267D007B3F7A00124BE8EF6002802AC240
:1003E4000DD2127F267DAD7C9D7B1B7A0C124C783E
:0903F400EF600280147FAD7D80F2
:1003FD007B0C1262577F817D017880E6FB1260E3F2
:10040D007FC81254797FC8125479020034123FC448
:10041D00202818125FF67F269024A61260CF7FC881
:10042D001254797F64125479020034EF74FF78A965
:10043D007583018882F0D29500000000209516C2C8
:10044D0085C284D2A4125FF67F269024C61260CF97
:10045D007FFA125479C285C284D2A4121164D2C516
:10046D00D2C47FFA12547978A97583018882E0701D
:10047D000D7F2690254C1260CF7FFA1254797401AE
:10048D0070247583727582BC7507AD7B0112733B49
:10049D0078AD7583018882E06403600C75830188F3
:1004AD0082E06401600280117F5012580B7F64124C
:1004BD0054797F5012580B80057F6412580B02102F
:1004CD002CC00078987583018882E0D0008AF06591
:1004DD00F060030202EE125FF67F2690245E12603A
:1004ED00CF123FC402102CC2A4D2837E017B017FA8
:1004FD0014C006C00312580BD003D006DBF1DEEF9B
:10050D008027125FF67F2690249D1260CF80D21235
:10051D005FF67F269024A61260CF80C5125FF67F0E
:10052D00269024111260CF80007FC81254797FC8A5
:10053D001254797FC81254797FC81254790200344D
:0E054D007583727582F67507007B0112733B91
:10055B0078007583018882E064AA12727DC29CC206
:10056B00AC120AB61212B9C20DC2127F267D007BE5
:10057B00DF7A01124BE80206E4C2A47F0112379224
:10058B007F011236E4D282C2957FC81254797FC89C
:10059B001254797FC81254797FC81254797FC812CC
:1005AB0054797FC8125479C282D295123824C298DA
:1005BB00C299C289C28BC28DC28FC28CC28ED2AC81
:1005CB00D2A8D2AF80FEC2A4D283C2C4C229C29C1D
:1005DB00C2AC7F011236A9789CE47583018882F046
:1005EB00187583018882F07583727582EC7507A18B
:1005FB007B0812733B7583727582EB7507267B0143
:10060B001273227826E6A2E0921EA2E19211A2B307
:10061B00B3920A200A0302054D30111A75837275C5
:10062B0082F47507007B0112733B78007583018898
:10063B0082E06488601F12727DC29CC2AC120AB643
:10064B001212B9C20DC2127F267D007BDF7A011216
:10065B004BE80206E47583727582F57507007B0122
:10066B0012733B78007583018882E064AA606A127A
:10067B00727DC29CC2AC120AB61212B9C20DC21262
:10068B007F267D007BDF7A01124BE8804C300A49D4
:10069B00D20DD2127F267D007C197B3C7A01124C45
:0706AB00CA7583727582AF6E
:1006B2007F267B3C1273227B3C780079267583016E
:1006C2008882E0F5F0E765F070060908DBEF80123A
:1006D2001212B9C20DC2127F267D007BDF7A01128F
:1006E2004BE8200A1E780074557583018882F00851
:1006F2007583018882F07583727582F57F007B02B3
:1007020012738975A88C12349375837275821A7567
:10071200078D7B0112733B798D7583018982E054C9
:100722000F6004C2268002D2267826E664FF70B2E9
:1007320008E664FF70AC08E664FF70A608E664FF92
:1007420070A0C2C4D21CC28CC2A9EBC000780FF642
:10075200D000792E78A17B047583018882E06770CE
:10076200120908DBF37FA57D327BFF12583C500350
:1007720002003412540EEB78AA7583018882F012BB
:1007820025A7123DB11232EB202940C2AFE4A22CC0
:1007920092E0C0E012728BD0E0A2E0922CC29CC226
:1007A200AC78AA7583018882E070057F01125479C2
:1007B2007F207EBF208306DEFB7EBFDFF77EFE301A
:1007C20083F27F06DFFEDEF7120B91302C03124715
:1007D20015D295000000002095187F01125479204F
:0507E2009510125FF606
:1007E7007F269024C61260CF7FFA1254797F262085
:1007F700150875A88C123493800675A882123CA838
:100807007826E664FF707A08E664FF707408E66489
:10081700FF706E08E664FF706878977583018882B9
:10082700E0047583018882F0200805B4080080037E
:10083700B46400400E3015031212947F14125479D9
:10084700020034792E78A17B047583018882E067E2
:1008570070120908DBF37FA57D327BFF12583C50ED
:1008670003020034200802808412540E1225A712B6
:100877003DB11232EB302C06201B0312471502073D
:10088700F478267912E66760030207F40809E66739
:1008970060030207F40809E66760030207F4080922
:1008A700E66760030207F47897E47583018882F0AE
:1008B700792BE7300826C208A2E7920B7800745517
:1008C7007583018882F0087583018882F0758372C9
:1008D7007582F57F007B02127389803B782DE66471
:1008E70060700E782FE670092015030200340209A4
:1008F700D1792BE730E705300B1B8003200B167FE0
:1009070000DFFEDFFEB2C57F00780EE6FBC2AF1246
:0509170032EB0207F4C1
:10091C00B20B782FE6B4003C300A34201E033011A1
:10092C002E7FAD7D267B07125772C212D20D7F2609
:10093C007D007B107A01124BE8EF600874091213EA
:10094C004A020034D22B7FAD7D267B0712578712CB
:10095C0029EA8065B401028060B40202805BB403B2
:10096C003D300A2C201E03301126202B237FAD7D19
:10097C00267B07125772C212D20D7F267D007B1088
:10098C007A01124BE8D22B7FAD7D267B071257875D
:10099C007831E664027002D22D1229EA801BB4046D
:1009AC00107831E679967583018982F01229EA80F4
:1009BC0008B451051229EA80001232EB30150312EB
:1009CC00106B0207F4C28CC2A9C2AF123E1475831D
:1009DC00727582007B011273BE30150D75837275B2
:1009EC0082EC7F827B08127389120CD0C285C28480
:1009FC00D2A4120EEA7FFA1254797FFA1254797F3C
:100A0C00FA1254797FFA12547902003480E722E406
:100A1C0075D000C2D3C2D4F5B8F587F598F58DF52D
:100A2C008BF58CF58AF5B8C202C20FD200C201D286
:100A3C000DC20AC209D208C215D214C21FC211C2F9
:100A4C001DC21CC218C21BC227C226C225C203C2A9
:100A5C0024D221C22FC213C22EC22DC22BC228787F
:030A6C000976B355
:100A6F00780876587FA3D2051259D0788B741075F9
:100A7F0083018882F07896E47583018882F07897F5
:100A8F00E47583018882F078A0E47583018882F091
:100A9F00E478917583018882F0788A7400758301F8
:100AAF008882F0751D0022C20AC20790002F7F12A4
:100ABF001257B675837275821A75078D7B01127383
:100ACF003B798D7583018982E0540F6004C22680C3
:100ADF0002D2267583727582EC7507A17B0812739B
:100AEF003B7583727582EB7507267B011273227833
:100AFF0026E6A2E0921EC21E301400201E078018A8
:100B0F00807A201E77C284D20D1266F7EF7006D25C
:100B1F000AD21E8067301E64126A5F126B03126B5B
:100B2F0049EF601620B311126A5F126B03126B4903
:100B3F00EF600774181213818042126C54EF703CEF
:100B4F00126C8DEF7036C211E52664206006E52623
:100B5F0064287024D2111270ADD20AC21E7827E613
:100B6F00A2E450127828E6A2E1500BA2E55007123A
:100B7F0070E0126AE8EF7004D20AC21E12104ED251
:100B8F002922C20AC20790002F7F121257B675830F
:100B9F007275821A75078D7B0112733B798D758380
:060BAF00018982E0540FF1
:100BB5006004C2268002D2267583727582EB7507A2
:100BC500267B011273227826E6A2E0921EC21E3011
:100BD5001400201E0B801D020C75301E03020C75BF
:100BE500C284D20D1266F7EF7007D20AD21E020C2C
:100BF50075301E7C9076527F261257B6C20D7F2621
:100C05007D147B05C207D205125AD5126A5F126B95
:100C150003126B49EF601620B311126A5F126B0362
:100C2500126B49EF600774181213818043126C54DC
:100C3500EF703D126C8DEF7037C211E526642060B0
:100C450006E52664287025D2111270ADEF7021D209
:100C55000AC21E7827E6A2E450127828E6A2E150DF
:100C65000BA2E550071270E0126AE8EFD20AC21E25
:100C7500C224200A0512104E80439076587F261212
:100C850057B6C20D7F267D147B02C207D205125AC4
:100C9500D5C20DD207D206D2057800E6FF7B021237
:100CA5005B99EB6402700E78007583018882E064BD
:100CB50061700280063013051259A7D224D2292269
:100CC5007583727582007B011273BEC228200A03E8
:100CD500020E64201E06201103020DF0D212D20D61
:100CE5007F267D007B107A01124BE8D20DD2127F50
:0C0CF500267D00124CA1EF6003020E648B
:100D01007B04850501780A7583018982E0F608096B
:100D1100DBF57583727582587F007B04127389D26B
:100D21000DD2127F267D007C127B287A00124C4D59
:100D3100EF6003020E6475837275825C7F007B280D
:100D4100127389D20DD2127F267D007C157B2B7AFE
:100D510000124C4DEF6003020E647583727582843C
:100D61007F007B2B1273897583727582847FAD7BC3
:100D71002B12733B78AD7583018882E064B97023CF
:100D8100087583018882E064E3701808758301881F
:100D910082E064B6700D087583018882E064AB70EF
:100DA100028026D20DD2127F267D007C197A017B2A
:100DB1002B124CCAEF6003020E647583727582AF09
:100DC1007F007B2B1273898045D20DD2127F267D45
:100DD100007C197A027B3C124CCAEF6003020E645C
:100DE1007583727582AF7F007B3C127389801F808F
:100DF1001D9076317F261257B6D20D7F267D0012C7
:100E01004D3078017583018882E060028055D228D7
:100E11007800E4A21E92E0A21192E1A20A92E27588
:100E210083018882F07583727582EB7F007B0112EA
:100E3100738930242E780074887583018882F07557
:050E410083727582F4CC
:100E46007F007B01127389780074AA7583018882FA
:100E5600F07583727582F57F007B0112738912101B
:100E66007B30145F30245CC224C20DC2127F267D03
:100E7600007B3F7A00124BE8EF60063013031259ED
:100E8600A7D212C20D7F267D007C017B587A001204
:100E96004C4DEF60083013031259A78026D22475F3
:100EA60083727582007F007B58127389780074AA5A
:100EB6007583018882F07583727582F67F007B01E7
:100EC60012738975837275821A75078D7B01127389
:100ED6003B798D7583018982E0540F6004C22680B8
:100EE60002D22622125FF6302619302516C2C57F99
:100EF6000212619B7F2690243B1260CF7FFA125428
:100F060079D2C5200A19C284C2C57F26902411123F
:100F160060CF3015077F6412580BD2C5020FE02050
:100F26001E072011047417801575837275828C7BD9
:100F3600017F0012733B78007583018882E0B41646
:100F4600667583727582587B047F0012733B780046
:100F56007583018882E064FF7023087583018882A7
:100F6600E064FF7018087583018882E064FF700DE5
:100F7600087583018882E064FF700280447B0479EF
:100F860000780A7583018982E0F60809DBF5C284D8
:100F9600C2C4D2C57F0412619B7F26125F5F120F07
:100FA600F2C2C4D2C58033B41717C284C2C4D2C534
:100FB6007F809024311260CF120FF2D2C4D2C58046
:100FC60019C2847F809024A61260CF800DC2847FD0
:100FD600809024D71260CF120FF27FFA1254797FD5
:100FE600FA1254797FFA125479020034C285C28407
:100FF600D2A478967583018882E0701B20A3117FA6
:101006005012580B7F641254797F5012580B80058A
:101016007F6412580B800F7F3212580B7F64125474
:10102600797F3212580BC285C284D2A4E475A80017
:101036007FC8125479202D05D2950200347FFA021A
:10104600003475A800020034301419C20DC2127F94
:10105600267D007BDF7A01124BE86006301305120D
:1010660059A7D22422202E0CD22EE44401F589D28F
:101076008C751FFA2222201E0620110302115F75AD
:1010860083727582847507AD7B0412733B78AD75E8
:1010960083018882E064CB7023087583018882E02F
:1010A60064C47018087583018882E064B4700D0802
:1010B6007583018882E064A87002800302115F755F
:1010C60083727582A07507AD7B0A12733B758372B6
:1010D60075821B7507987B0112733B758372758247
:0F10E600247507B77B0A12733B758372758238C6
:1010F5007507C17B0A12733B75837275824C750740
:10110500CB7B0A12733BC00078987583018882E017
:10111500D00060467A000ABA010479B78009BA029C
:101125000479C1800279CB78AD7B0A758301888209
:10113500E0F5F07583018982E065F070060809DB4A
:10114500EA8017BA04005012C000789875830188A8
:1011550082E0D0008AF065F070BC22124AFC2212AF
:101165005FF6302619302516C2C57F0212619B7FB6
:101175002690243B1260CF7FFA125479D2C5200AFB
:1011850019C284C2C57F269024111260CF3015077D
:101195007F6412580BD2C502123D201E0720110490
:1011A5007417801575837275828C7B017F001273AD
:1011B5003B78007583018882E0B4165D758372758E
:1011C50082587B047F0012733B7800758301888207
:1011D500E064FF7023087583018882E064FF70185E
:1011E500087583018882E064FF700D0875830188A6
:1011F50082E064FF700280327B047900780A75838F
:10120500018982E0F60809DBF5C2C4D2C57F041264
:10121500619B7F26125F5F801FB4170EC2C4D2C5C3
:101225007F809024311260CF800EC2847F8090240D
:08123500A61260CFC2C58000C3
:10123D00300A37740170337583727582BC7507ADD2
:10124D007B0112733B78AD7583018882E064016088
:10125D000C7583018882E064036002800D7FFA12B1
:10126D0054797F809024B81260CF7FFA125479227E
:10127D0000000000007B08330000A2C1DBF933F54C
:10128D00F0000000000022C28CC2A9C2AF758372AB
:10129D007582007B011273BE7583727582EC7F823D
:1012AD007B08127389120CD0123FC422758372759C
:1012BD0082007B011273BE7583727582EC7FA17BF8
:1012CD0008127389120CD022BF000DBD0D0590249C
:1012DD00F280039024E08030BF01059024FB80282C
:1012ED00BF02059025048020BF030590250C8018B2
:1012FD00BF04059024E98010BF05059025148008D2
:10130D00BF060590251C800022C0E0125FF6D0E0DC
:10131D00750A00750B00750C00F50D7F80125F8648
:10132D00E594440CF594E59354F3F59375940C758D
:10133D0093017FFF12580B7FFF12580B22C0E01252
:10134D005FF6D0E0750A00750B00750C00F50D7F8A
:10135D0080125F86E594440CF594E59354F3F59370
:10136D0075940C7593017FFF12580B7FFF12580B6C
:10137D0002003422227583017582007BFF7400F018
:01138D00045B
:10138E00A3DBFB7582007BFFE065827037A3DBF881
:10139E007582007BFFE065827024A3DBF878077B03
:1013AE00807407F60408DBFB78077B80E608DBFC1D
:1013BE0078077B80E668700908DBF97F00227F21C1
:0713CE00227F20227F222272
:1013D500004040FFFF6060040404040404068680A6
:1013E50000C0FCFFFF3C39C1F131FFFF11E1C10134
:1013F500020300FF7F180E033060FF7F00000F0F10
:101405000080F03E1FF9E88CCC781F0BF8E80C083B
:101415000081C06030796FA723263C98B171E060E8
:1014250000C0C0C0C7FEF8C1FFDCF8DFC3C0E0C024
:10143500000000E0FC786060FF6360606070400061
:1014450000080E0B080808FC7F78C80808080C0C73
:1014550000804060301C0F030000030F1C78706093
:10146500003030F0F73EFCB038B0FC7F43C0C060C0
:1014750000380E1360E0FC1B1F0F7FF0E0FF030038
:101485000040301C0F0387DE60301C0F1F3C7020AE
:101495000000031E1C02E2E26EFEFA6E67F7E20030
:1014A500000202FFFF00FFFF66FFFF6666FFFF0009
:1014B50020781C0F1F307F6FE0CFCFCCD8FFEF60B7
:1014C50000C070388FE740040404040404068680D5
:1014D5000060381EFF0D0101010101FFFF0101013F
:1014E500000000007F0000002060E0FF3F000000DA
:1014F50000000000000000FF13101010101810006D
:1015050000060602020202FF2A62C2C282820303A9
:1015150000000000000000FF60000000030700005D
:101525000000008F9E0000F87F01017FFFC1C0C051
:10153500000101FFFF0783853CE404C4FC3E040071
:101545000000001F9FC76160301F0F1F397070209A
:1015550000007F7F32323EBEF27E3E32327FFF8018
:1015650000010101FDF9696F6F6969FDFD01010167
:1015750000808080FFFF9B9B9B9B9BFFFF80E0C0C3
:101585000000C0FC5F03F8F01818FCFC0E06040010
:10159500080E03FF0000FFFF04043FFF04040604D8
:1015A500000000FF00003F3F0C36F2030F3C707E49
:1015B5000000E0E0606060FFFF606060E0F0000058
:1015C5000000FFFF0C0C0CFFFF0C0C0CFFFF0000D4
:1015D500000007070101017FFFC1C1C1C3C3FEF8B8
:1015E500000000FF02020202FAF2020202020302F6
:1015F500000000FF00080808FFFF08E8CC8E08007F
:1016050000E03F47404040407F7F4040434F70707F
:10161500000000F0F0000000FFFE000000F8F00000
:101625000000C0DF0F080808FFFF0808081FDF805B
:1016350000007FFF404040407F7F40404040FFFF2B
:101645000000F87F2630303030FF3030FF32302058
:10165500084F43FEFE636604F427242427F4E606B8
:101665000000007F7F180800FF62626262FFFF00D2
:1016750000000202020202FEFE02020202038300D1
:10168500000202020202E2FF0FFE0202020303034E
:1016950080C06030180E0701007F606060607C7F4D
:1016A50000000000000706FEF880000000000000B2
:1016B5000000000000C0FC1F033FF8C00000000050
:1016C50000C0703C0F030000000001071E7CF060A5
:1016D500000000FFFE060606060606060606FFFED5
:1016E500000000FFFF000000000000000000FFFFF9
:1016F500000000FFFF181818181818181818FF7F91
:10170500000000840404040404040404FEFE000034
:10171500000000FF05040404040404041F0F000076
:10172500000000FFC0C0C0C0C0C0C0C0C0C0FFF046
:1017350000383F0F02FAD2C2C2C2C2C2C2FF87023C
:0D174500000000003F1F1010101010901049
:10175200F8F8000000020202020202022223E3F36E
:101762007F03000000000080E0381F071C70E0C00B
:1017720080000000182C2723A222FEFEA2A32333FE
:101782003307060060301C0F2362FF7F0001030E47
:101792003C3800007038F8FF9E98B81AE2427E4644
:1017A20042E2E30088C7E7BD9FFFF160FF00FFFE52
:1017B20000FFFF01017F7F10103FB840733C0F050F
:1017C2000C3BF1000000FFFF313131313131317F0B
:1017D20001E00000404043C7C646464646FEFE467C
:1017E20046676200000000000F0E303070FF7F007D
:1017F20000000040C0831EE8FCF84F49FC08F8BF17
:1018020083C0C00083C3FE1317F79E9ED79F7FF04D
:10181200FE3F0000017FFF703E0F18F87F301C0F63
:101822001F387000C0810F1EC00C0C0404FE060796
:10183200078380008087F73F01E1E121213F2121D9
:10184200F1E10100017F7F0000FF7F1010101010F6
:10185200FF7F00000000031E1C00040404040404B3
:10186200FEFC0000020202FF0200FCFC0C0C0C0C4D
:101872001F0F00000000307F1E077FFFC0C0C0C0E6
:10188200C0FFFF00FEFE04E464FE06FFFF02C0701C
:101892003C1C0000FFFF80FF00FFF8FFFF1BF888E1
:1018A200080C0C8061391F03061E383FFF380D07F4
:1018B2001E38300000F8F810101010171E1010100B
:1018C2001018180000FFFF000000000000000000D8
:1018D20000000080781F01000000000000000000EE
:1018E2000000000000F8F810101010171E10101061
:1018F2001018180000FFFF000000000000000000A8
:1019020000000080781F01000000000000000000BD
:101912000000000000F8F810101010171E10101030
:101922001018180000FFFF00000000000000000077
:1019320000000080781F010000000000000000008D
:101942000000000000F8F810101010171E10101000
:101952001018180000FFFF00000000000000000047
:1019620000000080781F010000000000000000005D
:101972000000000000F8F810101010171E101010D0
:101982001018180000FFFF00000000000000000017
:1019920000000080781F010000000000000000002D
:1019A20000000000D0901010F0F818C0FF5F404017
:1019B20040E0E0000003CEFCFF811C0701FFFFE0D6
:1019C20002030020380E030083CF6E380F03000F8E
:1019D2007CF0C00000073E1C00F8F80C0EFEF01070
:1019E20010F810020202FFFF00FFFFC040FFFF00DD
:1019F20000FF002070380F3F70E3C3C1C0FFDFC19A
:101A0200C7C7C0000000E0FF0F10909090FFFF904A
:101A120090D818101C07FFFF00007F9010FF3F10A6
:101A22003F3F000000007F7F80C060331E1F306098
:101A320060E0C0000000FFFF838383FFFF83838396
:101A420083FFFF000000FF21202020FFFF20202035
:101A520020FFFF80703F07000000007F7F003030D2
:101A6200E0FF3F006060FFFF6060FCF80C0C0606C0
:101A7200078680207030FFFF0C06FF3F0111FFFF39
:101A8200C181010030707FFF701E07000000FF7FE0
:101A920000030700000000FEFE80808087FF808038
:101AA20080C08000000000FF3F31313131F1F90187
:101AB2000101010060381F070000000000FFFF0065
:0D1AC2000000000018181898F87F1FD8D8F1
:101ACF00181818181C180000001C0F090808FF0828
:101ADF0008080C0C88800003030303030303FF6350
:101AEF000303030303030000FE84FFFFC0FCF88C15
:101AFF00EFF98888FC080000FF3030F000BFDF6886
:101B0F003FFFE8089F80407F0F00007F0303030320
:101B1F0003FF7F03030300040404040404E4FC9C98
:101B2F00040404040706000080C0703C0F03FF018B
:101B3F0002061C78E0C00006030000000000FF0052
:101B4F00000000000103001808080808080808082A
:101B5F00080808080F0F0000000000000000000038
:101B6F000000000000000000000000000000000066
:101B7F000000000000000004C4741C0C64C687E061
:101B8F00FF2720E0303000636363FFFF61736F074F
:101B9F003FF0FC7F0000103030181F0F8C4C643466
:101BAF001C0F0F1C38700000F8F810101010171EC3
:101BBF001010101018180000FFFF000000000000A8
:101BCF0000000000000080781F01000000000000EE
:101BDF000000000000000000F8F810101010171E91
:101BEF001010101018180000FFFF00000000000078
:101BFF0000000000000080781F01000000000000BE
:101C0F000000000000000000F8F810101010171E60
:101C1F001010101018180000FFFF00000000000047
:101C2F0000000000000080781F010000000000008D
:101C3F0000000000000000000000FF5A5A5A5A5AD4
:101C4F005A5AFFFE0080000202FAFB4A4A4AFA4A39
:101C5F004A4AFAFA03030080909797929292FF9262
:101C6F0092929F9BD0C0001818181898F87B3E18B6
:101C7F00989818181C180000001C0ECFFD0C0CFCB7
:101C8F00FC0F0F1E180000C040303C0F0300007FF8
:101C9F007F6060607F7E0000020202FEFE02020291
:101CAF00FEFE020303020004040404FFFF04040405
:101CBF00FFFF0404070700C060301E07000000008C
:101CCF00FFFF00000000004040FF7F42E04080F82F
:101CDF003F071060C08000E0FF8780FE3F03F7E3FF
:101CEF0023232321F32700C0301D0F070E0CFFFF06
:101CFF0010101010FF000000C07C1F82E060202039
:101D0F00FFFF202030300087E7FADE476104E4C48C
:101D1F00474744E4E60400303918080C0404FF7FF9
:101D2F00101010FF7F00000808C888888889FF8975
:101D3F008888C8C80C0C000000FF7F30F0F0FFF05F
:101D4F00F0307F7F0000404030180C0703E0FF00A9
:101D5F0003071C38381000C0F830101010111F1E68
:101D6F00109090F078300010301111F1F11111F145
:101D7F00F1111118181000804060381F0700007F04
:101D8F007F606060787E0000F0F0202020202FFF21
:101D9F00A1212F2E30300000FFFF0C0CFCFC003F68
:101DAF00FFC0F83F070000F03F03041C1F6F3018FF
:101DBF000F071F38707F0000073E1800FFFF43FF1B
:101DCF00C37F7F43FFFF020202FFFF4061387EE7C0
:101DDF0005C4F47E0C002070380F1F3070F8CCCF84
:101DEF00C7C3C0C0C0C00030F0FF97901800FE22DC
:101DFF002222FE7F0280000E0F08FF8C8F41FF49C9
:101E0F00494949FF010100070303FF050C0C0704B3
:101E1F000404E4FF0606002020202020FFFE00FF20
:101E2F00FF202020302000000C0C0C0CFFFF00FFC7
:0D1E3F00FF0C0C0C0C80000101010101FFE3
:101E4C007F007F7F01010101010000FEFE0606FEFE
:101E5C00FE0606FEFE0606FEFE0000FFFF00C0FFAB
:101E6C003F0000FFFF8080FFFF0000FFFF262320C4
:101E7C0020202021212121FFFF00000000FFFF0076
:101E8C000000FCFC000000FFFF00000080FF0300CE
:101E9C000000FFFF000000FFFF00C0781F030000E0
:101EAC0000000707000000FF7F0000F8F81010107A
:101EBC0010171E1010101018180000FFFF00000063
:101ECC0000000000000000000080781F01000000EE
:101EDC0000000000000000000000303030FF303007
:101EEC000606FE068606FE000002F20202FF626291
:101EFC000CFE0D0C0D0EFD0000380718203F2020A5
:101F0C0020272323232327200000000000FF8080AC
:101F1C004040300806000000000C0C0C0CFF0D1D9E
:101F2C006C8C0C0C0C0C0C0C0000000000FF20182E
:101F3C00040003041C381800000000F0F0202020DE
:101F4C00202FFFA1212F2E30300000FFFF0C0CFCA6
:101F5C00FC003FFFC0F83F070000F03F03041C1FCC
:101F6C006F30180F071F38707F00101010F0F01032
:101F7C00989080FFFF8080C0C000000000FFFF80B1
:101F8C008040C0FF0F0000FF3F0006060383416145
:101F9C00381E071130E0F83F0000FEFC04F424FE6C
:101FAC000480FE7F6360E0607000FFFFF0FF80FF45
:101FBC007C0707FEC0FF1F000040613C0F01038F30
:101FCC005E60380E071F3870608080061E1CE07043
:101FDC00606060FF626060604000030FF63E1310AB
:101FEC001010F0FF10101018180103FFFF0060F024
:101FFC00FC6F636020263CF8F00000063C38404043
:10200C0040404040FFFF406060000404FEFE0001C1
:10201C000E3C3000FFFF00000000E0701F1F30601E
:10202C0060E0C4CCDFCFC0E0600010101090F0D0A6
:10203C00131F1E70D090901C1800100C07030DF885
:10204C00C000F87E0C030F0E000080C040603018FA
:10205C000F0F1F38307060E0600000031E1C000082
:10206C00FFFE42424242FF0200020202FFFF808456
:10207C00858484FC848486E6C40000007F3F8EC384
:10208C0060381F030F3C70E04000000000FC8888A3
:10209C008F8B888888FC08000000000000FF4C4CE7
:1020AC00CC4C4C4C4CFF80000000E0F83C01FFFE97
:1020BC0080879E80E0F9073E78000080F0BF179083
:1020CC009090939F9C90D09818101C07FF000009CB
:1020DC00D98989898989CD8900000000FF00000019
:1020EC00FF10101010107F000000000000FFFE22F7
:1020FC002222222222FFFF000000000080E77F3F07
:10210C00FFF333B3F37733F0F000022331989CCE16
:10211C0063301C6F43C0F87F010000061C188088D8
:10212C008888FFFF88888CC8C0000303FF0200105A
:10213C00726E0CF8FF020283800000103F188DC3F2
:10214C006171390F0F1971E101001010109090900E
:10215C00939F9E9090D0901818000000007F7F20D5
:10216C0020E02020207F0000000060301C0E272281
:10217C00E07F0000030E3C380040C0831E9CC0C8AA
:10218C00C8C8FFFFC8C8FCC8E08081C7F80F6464EA
:10219C006464FFFF64647F600000013F3F02020241
:1021AC000202FFFF020202030340C0830E1CC07830
:0D21BC00F0F020233E2420F030000107C287
:1021C900FC0700FFFF08080808081F1000017F7FAF
:1021D90080603C0F01000000000000004080831E69
:1021E900FC00C0F0BC8F87DCF0E0C0C00001C7FE76
:1021F90007FFFD64FCFE00FCF800FF0101317F01CF
:1022090000FFFF22FF7F000F6FE07F00006464245E
:10221900B494FFBF80BFBFA4A6A7333C0000808051
:10222900FFA4E4A4BFA4E4E4FFFFC0000004C44485
:10223900643C1F1404040F1F3474E606000434E4DC
:10224900F41ECEF0FC2FA7F43E2CF060000202FE33
:10225900FF0E4767B7DE7FC3E23A1F000010307FE9
:102269001F20321B2D6EE37F1F0F3C30000000043E
:10227900040404040404040403000000000004042A
:102289000404C43C0C0444840404030200000070E8
:102299006C23203010101011167C00000000011E64
:1022A900000002020202C2221A0602000000020213
:1022B900FF0000000000FF000000000000203008BF
:1022C90007182064444CCFC0C0C0C020000000FFE4
:1022D900020AF202FE02621A02FF0200000000274F
:1022E90022222222FF222222221300000001C17988
:1022F90001017901010971010519E101008006DC7B
:102309002040FC424040FC080808F8080001E61F8C
:102319008070FF040C10FF414141FF0000013F02A2
:102329000100077800007F1010107F0000F80C13DF
:1023390010F8603C8888858A88E81C0000FF04043E
:1023490004FF0808E81808F8080804000007020252
:10235900422310080700001F20202638008040F083
:1023690028262724F42C2624E020000000202023FE
:10237900A5A5A5A5A7A5A5A5E72010100000000003
:102389007F444444444444447F000000080B0B6FDD
:102399006F6F6F0B0B150121020000B4B43C5F0C89
:1023A9000B0B0B0B0B0B0B0B0B0B0D130121020072
:1023B90000B4B4603C61620B0B0B0B0B0B0B0B13E2
:1023C9000121020000B4B4603C63640B0B0B0B0BDE
:1023D9000B0B0B130121020000B4B4603C65660BC2
:1023E9000B0B0B0B0B0B0B0A0B0B0B450B0B460BC0
:1023F9000B0B0A0B0B0B390B0B3A0B0B0B0A0B0BC9
:102409000B480B0B490B0B0B0A0B0B0B400B0B3837
:102419000B0B0B090B0B0B4035380B0B0B0A0B0B7A
:102429000B3E0B0B3F0B0B0B090B0B0B4A4B380BE2
:102439000B0B080B0B323334350B0B070B474138A9
:1024490034350B070B48493840350B090B0B0B6723
:1024590068380B0B0B070B5758595A5B0B0A0B0BB8
:102469000B550B0B380B0B0B0A0B0B0B6D0B0B6E78
:102479000B0B0B070B5758595A5B0B080B0B3856AC
:102489003E3F0B0B0F0000020031B5B60B0B0B0BD7
:102499000B0B0B0B080B0B696A6B380B0B080B0B3F
:1024A90079383E3F0B0B080B0B79383E3F0B0B0677
:1024B90043444142777606434441427776070B3CD1
:1024C900A33C3D3B0B080B0B3C3D733B0B0B080B33
:1024D9000B74783F750B0B080B0B48496F700B0B8E
:1024E900080B0B484934710B0B080B0B47416F70F4
:1024F9000B0B080B0B474134710B0B070B69724728
:1025090041380B070B47413834350B070B697248C3
:1025190049380B070B48493834350B04016302006D
:10252900040121020004014202010B0B0B7A000194
:0D253900020304050B0B0C0B0B0607000141
:10254600020304050B0B080B0BA4446F700B0BBEA8
:10255600A9BDF2BBA6D3E5BCBDD4A5D4C6C1C9BA34
:10256600DACFE6CDEEC2B3D0C2CBD5D5E3B8D3B67B
:10257600F5B9F0B8CABDFAC3C9C9C2BCAAC3F6B98F
:10258600F3D4C1C7E0B2D8B4A8C4FEC7EDBEFCBF41
:10259600D5BAA3B1B1C9F2C0BCBCC3C4CFB9E3B309
:0125A600C96B
:105F5F00C007EF2409FBAC0AAD0BAE0CAF0D790AED
:105F6F00EC30E70A74FF6204620562066207125F93
:105F7F00ADD00712609522C007EF2409FBAC0AAD24
:105F8F000BAE0CAF0D790AEC30E70A74FF620462B6
:105F9F000562066207125FADD0071260B222EBC92D
:105FAF00FB7A047804E4D6C6C475F00A84C4C6C468
:105FBF0045F0C475F00A84D6E5F008DAE9F719EC74
:105FCF004D4E4F6006DBDA22770B19DBFB22EFC356
:105FDF00139295C0037B08EDC295C3339295D2956A
:105FEF00DBF6D003B29522C2957F01125479D29578
:105FFF00C295C295D295C2957F07DFFEC295C29515
:10600F007F07DFFED2957F007D00125FDD7D1012CE
:10601F005FDD7D40125FDD7DB0125FDD7DA2125F1F
:10602F00DD7DA1125FDD7DC0125FDD7DA6125FDD1C
:10603F007DA4125FDD7D27125FDD7D81125FDD7D27
:10604F000F125FDD7D2F125FDD7DAF125FDD7F01F0
:10605F0012606D7F0212606D7F0012606D228507E6
:0C606F00047F0074B04CFD125FDD7F0068
:10607B004410FD125FDD7F007D00125FDD7A607FD3
:10608B00017400FD125FDDDAF62285070076450804
:10609B00764608850001097B05E7F60908DBFA76E9
:1060AB000A7D017B0C8031850700763F08767508E9
:1060BB00850001097B05E7F60908DBFA760A7D0105
:1060CB007B0C8014850700740093FB7901E993F630
:1060DB000908DBF97D017B0C8507067C0085050033
:1060EB0018E86006EC2408FCD8FAEB600280030287
:1060FB006193A806E6FFBF3200400280177A08C3FF
:10610B00EF940075F018A42495F582E4E5F03423A0
:10611B00F58380157A10C3EF943275F030A424D533
:10612B00F582E4E5F03413F583780079007F007491
:10613B00B048FD125FDD7F00ECC4540F4410FD121C
:10614B005FDD7F00EC540FFD125FDDBA10004013D2
:10615B00C0037B107F01E993FD125FDD09DBF5D0F6
:10616B00038011C0037B087F01E993FD125FDD09FA
:0B617B00DBF5D00308B80411BA1000D7
:1061860040051BEC2408FCEC2408FCDB032280A25F
:106196000E0260FD22EF30E023C0E07F0074B044C1
:1061A60008FD125FDD7D10125FDD7D04125FDD7B71
:1061B6000A7F017DFF125FDDDBF7D0E030E11FC013
:1061C600E07F0074B04408FD125FDD7D13125FDDD1
:1061D6007D01125FDD7F017DFF125FDDD0E030E2E1
:1061E6001FC0E07F0074B04408FD125FDD7D14120D
:1061F6005FDD7D00125FDD7F017DFF125FDDD0E098
:1062060030E34DC0E074B04408FD125FDD7D151229
:106216005FDD7D0C125FDD7F017DFF125FDDD0E06B
:10622600C0E07DFF20E4027D007F01125FDDD0E04B
:10623600C0E07DFF20E6027D007F01125FDDD0E039
:10624600C0E07DFF20E5027D007F01125FDDD0E02A
:1062560022C007C0059025338505070F1257B6D013
:1062660005D007850500EBF6ED2403FDC005C00744
:106276008507007583018882E0F5F0902555790041
:106286007B29E99365F0702E08C083C0827583016F
:106296008882E0D082D083F5F009E99365F0601A30
:1062A6000918C083C0827583018882E0D082D083BA
:0262B600F5F001
:1062B800DBCE80040909DBC8D007D005EB701DC010
:1062C80007C00590253F8505071F1F1257B6D00543
:1062D800D0077B088507018505008016F5F074292D
:1062E800C395F0C3247A850500F6088507010909D6
:1062F8007B067583018982E0B44000500BB43000FE
:106308004006C39430F68023B45B00500BB44100C0
:106318004006C39433F68013B47B00500BB461007D
:106328004006C39453F680037411F60809DBC322B0
:1075E9007FC1EF8B9904A768F3E6C548E36AE262B5
:1075F90040108C272AC37A6E450AD3F6296FC9A988
:10760900980C651A5FD163ACB3C7DD06B6EC16AE4C
:10761900AA052BCBB81CE93D751219C2F6CD0EF09F
:08762900F006FFFFFFFF010264
:0600260002638980FE2246
:1063380022C0E0125FF6D0E0750A00750B00750CFC
:1063480000F50D7F80125F5F75940075930080F8EB
:10635800222222222280FE222222222222222222DB
:106368002222222222222222222222222222222205
:1063780022222222222222222222222222222222F5
:10638800222275A800438E8075B21075B101D282A1
:10639800758902C28CD2B474D0F58A74D0F58CD2C7
:1063A8008C75A800D2ACD2AF758F010264A530827B
:1063B800FD30825730825430825130824E30824BC9
:1063C80030824830824530824230823F30823C30D1
:1063D800823930823630823330823030822D3082BA
:1063E8002A3082273082243082243082243082244A
:1063F8003082243082243082243082243082243037
:1064080082243082243082243082240264A52082AF
:10641800FA2082F72082F42082F12082EE2082EB9B
:106428002082E82082E52082E22082DF2082DC20B0
:1064380082D92082D62082D32082D02082CD208289
:10644800CA2082C72082C42082C12082BE2082BB8B
:106458002082B82082B520822320822020821D201D
:10646800821A20821720821420821120820E208214
:0C6478000B208208208205208202808F09
:106484007F0FDFFE12550D12550D12550D12550DCD
:106494000000000000C28CD2B474DEF58AD28C8075
:1064A400002082030263B62082FD2082572082549A
:1064B40020825120824E20824B2082482082452017
:1064C400824220823F20823C2082392082362082F0
:1064D4003320823020822D20822A20822720822489
:1064E40020822320822320822320822320822320AF
:1064F400822320822320822320822320822320823D
:1065040023208223809B3082FB3082F83082F53056
:1065140082F23082EF3082EC3082E93082E63082DF
:10652400E33082E03082DD3082DA3082D73082D4C8
:106534003082D13082CE3082CB3082C83082C530B6
:1065440082C23082BF3082BC3082B93082B630829F
:106554002330822030821D30821A30821730821418
:1065640030821130820E30820B3082083082053046
:10657400820280907F0FDFFE12550D12550D1255C9
:106584000D12550D0000000000C28CD2B474DEF56B
:106594008AD28C0264A522D2A3D207D206C2057F76
:1065A40000126DF5EF600302664885050785050056
:1065B40005000500050005007583018882E0FA08DE
:1065C4007583018882E0C002C0E0126E9CD0E0D0E6
:1065D40002CAC002C0E0EA64036005123F9180036E
:1065E400123F567F011237927F011236E4D0E0A2A7
:0365F400E0920F23
:1065F700123DB1126D37C298C299C289C28BC28D42
:10660700C28FC28CC28E75A800D29CD2ACC28CD26B
:10661700AFD002EAB400028072B401028069B4020A
:1066270002804FB40311D2827F007F011236A97F07
:1066370000123F2902638AB404028015C2C5020012
:1066470034126D37D2AFD2ACC289D2AAD28A020035
:10665700B5123824C298C299C289C28BC28DC28F23
:10666700C28CC28EC282D2A8D288D2ACD2AFD2821A
:1066770080FE000000000000000000000000000095
:10668700000000B28280EBD28280FE78269075E906
:106697007B407900E993F60809DBF978267D407F8E
:1066A7000780120000E6087F08800A00007E02DEED
:1066B700FE00000000B28213400E7E03DEFE7C0067
:1066C700B282DFE7DDDD80D30CBC05177C007E07D7
:1066D700DEFE00B2827E04DEFE0000B282DFCCDD89
:1066E700C280B87E02DEFE000000DFBFDDB580ABF2
:1059D000EFC0E0E4441044044441F58ED0E0538924
:1059E0000F438920F59C3005057598C08003759894
:1059F00040758780C298C29922C000C0E07808E64E
:105A0000C3940C0000FFD0E0D000DFFE3000067F22
:105A1000630000DFFE22C000C0E07809E6C3940BFB
:105A20000000FFD0E0D000DFFE3000067FC700009E
:105A3000DFFE22C000C0E07809E6C3940C0000FF3E
:105A4000D0E0D000DFFE3000067FC70000DFFE227E
:105A5000C000C0E07809E6C3940E0000FFD0E0D09B
:105A600000DFFE3000067FC70000DFFE22C000C05E
:105A7000E07809E6C394100000FFD0E0D000DFFE1C
:105A80003000067FC70000DFFE2222EF125A3330BB
:105A90000506A2D0790980087908000000000000FE
:105AA00013125A16D9FA000000125A6D22C2B0EF32
:105AB0001254B1300506A2D0790980087908000097
:0C5AC000000000001392B01254A9D9F8A5
:105ACC00000000D2B01254A922850700EDFF125439
:105ADC0096200703E680097583018882E0000000A8
:105AEC00FF125AAD08DBE57F00222083057F0102FF
:105AFC005B9730062C300C1AC20C788B758301889E
:105B0C0082E0F879FF7AFF30831ADAFBD9F9D8F7FB
:105B1C00800B787079FF30830BD9FBD8F97F02802A
:105B2C006A2083FD1254E300003083057F0300805C
:105B3C005A748000001254C200A2831350F730052F
:105B4C00321254C80000A28320D00792D020D00B70
:105B5C00800D92D00000000020D0047F01802C1218
:105B6C0054E120832412550320831E1255032083F5
:105B7C001880121254D920831012550320830A1254
:105B8C0055032083047F0180027F00FD22D20CD2BA
:105B9C0009EF788C7583018882F0850700EB60052E
:105BAC002814FBC209C000125AF6D000D206FAEF34
:105BBC006400703F798C7583018982E0850007CF82
:105BCC00C39FB47F00501DEA200703F6800975833C
:105BDC00018882F0000000EB200906687003088041
:025BEC0012089D
:105BEE0080C17F047B80788C7583018882E024805D
:105BFE00F8798C7583018982E0C3C898FB2232C282
:105C0E009C850700EB602AC299200703E680067583
:105C1E0083018882E07A64DAFE300504A2D0929A7B
:105C2E00F599081B3099FDC0077F0ADFFED007806B
:105C3E00D3D29C22539AEF850700EB602D539AFD29
:105C4E00200703E680067583018882E07A64DAFE17
:105C5E0030050CA2D0C0E0E59A92E2F59AD0E0F5BC
:105C6E009B081BE59A30E1FB80D0439A1022D20CA0
:105C7E00D29CC298850700EB60032814FB30062ED9
:105C8E00300C1EC20CC000788B7583018882E0D068
:105C9E0000FC7A7F7DFF20981ADDFBDAF9DCF780B5
:105CAE00317C157AFF20980BDAFBDCF980243098D2
:105CBE00FDD206C298E599200703F6800975830187
:105CCE008882F0000000EB6006687003088003080D
:105CDE0080ABE8C39FFBC29CC29822D29CC298782C
:105CEE008B7583018882E0FC7AFF7DFF20980ADDA8
:0B5CFE00FBDAF9DCF77F02800BC29894
:105D0900E599FD7F00C29CC29822D20C439A105398
:105D19009AFE850700EB60032814FB300632300C2D
:105D290020C20CC000788B7583018882E0D000FC0A
:105D39007AFF7DFFE59A20E025DDF9DAF7DCF580C9
:105D49003D7C157AFFE59A20E014DAF9DCF7802E1C
:105D5900E59A30E0FBD206C28CC2A9751F01539A9D
:105D6900FEE59B200703F680097583018882F00010
:105D79000000EB600668700308800308809DE8C393
:105D89009FFB539AEF539AFE22E422850700EDFF09
:105D9900125496200703E680097583018882E00082
:105DA9000000FF125DB708DBE57F00800022EF12DB
:105DB900549D300507A2D07909025AC47908000018
:105DC900000000001312549D000000000000D9F4E7
:105DD90000000012549D22D20CD29CC29885070063
:105DE900EB60032814FB30062F300C1FC20CC000D7
:105DF900788B7583018882E0D0007C2A7AFF7DFF49
:105E090020981ADDFBDAF9DCF780317C157AFF205E
:025E1900980BE4
:105E1B00DAFBDCF980243098FDD206C298E5992094
:105E2B000703F680097583018882F0000000EB60A0
:105E3B00066870030880030880AAE8C39FFBC29C16
:105E4B00C29822D20CEF788C7583018882F085077B
:105E5B0000EB60032814FBC000125EBCD000D2061E
:105E6B00FAEF6400703E798C7583018982E08500BE
:105E7B0007CFC39FB47F00501CEA200703F68009AD
:105E8B007583018882F0000000EB600668700308E0
:105E9B0080120880C27F047B80788C758301888296
:105EAB00E02480F8798C7583018982E0C3C898FB64
:105EBB00222083057F01025F5D30062C300C1AC255
:105ECB000C788B7583018882E0F879FF7AFF308339
:105EDB001ADAFBD9F9D8F7800B780379FF30830BEB
:105EEB00D9FBD8F97F02806A2083FD1254E30000AE
:105EFB003083057F0300805A748000001254C20067
:105F0B00A2831350F73005321254C80000A283202D
:0E5F1B00D00792D020D00B800D92D000000055
:105F29000020D0047F01802C1254E12083241255D3
:105F39000320831E12550320831880121254D9207E
:105F4900831012550320830A1255032083047F010D
:065F590080027F00FD2222
:106F3100C0077F00740923D2E7126A90D007227F2D
:106F410000740A23D2E7126A902285070075162978
:106F5100C000126BB7D000EF64FF700302700CEF3A
:106F61006403703C126F3164FA7025126F31126F35
:106F7100317409237FFA126A907409237F01126A1E
:106F8100907409237F32126A907F0C126B9280BD3C
:106F9100EF1414FBBB7F0040028070126F3180112F
:106FA100EF1414FBBB7F0040028060126F31126F3F
:106FB10031850304C004C003126F317F0ADFFE2054
:106FC1000703F680067583018882F008DBEAD003A7
:106FD100D004740A23D2E77F00126A90600CFB2C64
:106FE100FCBC7F004002802380CA850403C00312D9
:106FF1007011D003201213E8C39CF87461758301EA
:107001008882F008EC8882F07B02227FFF7B0022DD
:10701100740C23D2E77F00126A90D2E7FF740C232D
:10702100126A90740A237F80126A907401237F0090
:10703100126A9022C007FF740923126A90D00722B6
:10704100740AA21F92E0127035B21F7401127035DA
:03705100BB36004B
:1070540050047C008008C3E5039435FC7B35850728
:1070640000200703E680067583018882E0127035EC
:1070740008DBEE7516297F0C126CF0EC7002802888
:107084007F00740A23D2E7126A90B41E0050F1857F
:1070940004037F12DFFE200703E680067583018860
:1070A40082E012703508DBEA227409237FE0126A59
:1070B400907409237F71126A90C207D21175162346
:1070C4007D267F0C126B92BFFF037FFF22EF60FAD5
:1070D400750126126F31F70501DFF8227409237F49
:1070E400D1126A907409237F11126A907409237F64
:1070F4000A126A90C207D2117516237D267F0C12DC
:107104006B92BFFF037FFF22EF60FA750126126FB7
:1071140031F70501DFF822C207C005C00312704130
:0D712400D003D005D207850507126F4B225E
:106A5C007400227585DCE4F585D286D287D2C6D245
:106A6C00C1D2847F01125479C2847F01125479D22D
:106A7C00847F021258267401237F0F126A907F01C3
:106A8C0012582622801BC2860000F586E58430E76A
:106A9C00FB7584C08F86E58430E7FB7584C0D28695
:106AAC0022C003C28600007B08C2873392C6D287FD
:106ABC0000DBF600000000000000000000000000F9
:106ACC0000000000EF7B08C2873392C60000D2871B
:106ADC00A2C1DBF333F5F0D286D003227412237FEC
:106AEC00A0126A907413237FA0126A907424237FDF
:106AFC0009126A907F00227411237F3D126A9074F0
:106B0C0015237F40126A90742A237F8D126A907429
:106B1C002B237F01126A90742D237F96126A907436
:106B2C002C237F01126A90740D237F07126A9074D4
:106B3C0014237F81126A907F051258262274092330
:106B4C007F52126A9074237816F6C207C2117D2602
:106B5C007F0CC0077404237F7F126A90D0077401E6
:106B6C0023126A90740D23D2E77F00126A90D2E749
:106B7C00FF740D23126A9030B3047E0480027E965B
:106B8C007FFF126BB922C0077404237F7F126A90B7
:106B9C00D007740123126A90740D23D2E77F001280
:106BAC006A90D2E7FF740D23126A907E9600000063
:106BBC000000DF05DE03026C4F740423D2E7C0072C
:106BCC007F00126A90D007E51655F060E0E5F030D2
:106BDC00E002806F740623D2E77F00126A90541B88
:106BEC007061740A23D2E77F00126A90301102FFA1
:106BFC0022602A850501FD740923D2E77F00126A01
:106C0C0090B900028015200703F7800EC083C08264
:106C1C007583018982F0D082D08309DDDA740C236C
:106C2C00D2E77F00126A90D2E7FF740C23126A90AD
:106C3C00740A237F80126A907401237F00126A9079
:106C4C007F00227FFFC28422740D237F00126A9082
:106C5C007409237F93126A907409237F20126A901F
:106C6C0074237816F6C207C2117D177F0C126B9233
:106C7C00BF000D78177D05E46608DDFC60027FFF20
:016C8C0022E5
:106C8D00742B237F3E126A90742D237FFA126A9023
:106C9D00742C237F02126A907409237F93126A90D9
:106CAD007409237F70126A9078177A047E00E6FFCC
:106CBD006206740923126A9008DAF3EEFF74092351
:106CCD00126A907412237F80126A907413237F804E
:106CDD00126A9078167633C207C2117D267F0C1288
:106CED006B9222C0077404237F7F126A90D00774C1
:106CFD000123126A90740D23D2E77F00126A90D29D
:096D0D00E7FF740D23126A9022C5
:10766500227FFF22222222222274FF85050074FF39
:107675007583018882F0087583018882F07583011E
:097685008882F07B0280012222C0
:10540B007F092212541512543F22900033935403F8
:10541B0075820F7583012583F5837835E6F5F07872
:10542B00927583018882E004F21465F02582F5827F
:10543B0093540322B400047F008024B401047F033F
:10544B00801DB402047F068016900033935401F53F
:10545B00F078927583018882E0540125F080D5EFB6
:10546B00FB600A7D187EFFDEFEDDFADFF622C0064A
:10547B00C0057E0F7DFF0000000000000000000053
:10548B00DDF4DEF2DFECD005D0062200DFFD22DFFB
:10549B00FE227F4EDFFEDFFE7FFE0000DFFE000000
:1054AB000000000000007F01DFFE007F0FDFFE0029
:1054BB0000000000000000000000000000000000E1
:1054CB000000000000007F09DFFE0000000000006C
:1054DB0000000000000000000000000000000000C1
:1054EB0000000000000000000000000000000000B1
:1054FB0000000000000000000000000000000000A1
:10550B00000022EFF8EDFA7EFF7FFF905572EF66F9
:10551B00C33350020583FC04936EFFEC93FE08DA51
:10552B00EAEFF4F608EEF4F622EFF8EDFA7EFF7FE1
:10553B00FF905572C083C0827583018882E0D08250
:10554B00D0836FC33350020583FC04936EFFEC933F
:10555B00FE08DADDEFF47583018882F008EEF4F2D1
:10556B007583018882F022000011892312329B4639
:10557B002457AD653674BF8C489DC1AF5ABED3CA94
:10558B006CDBE5E97EF8F7108101083393221A569C
:10559B00A5472C75B7643E9CC98D40BFDBAE52DA74
:1055AB00EDCB64F9FFE8762102308B02101399677B
:1055BB002676AF443455BDAD4ABCC38E589FD1EB54
:1055CB006EFAE7C87CD9F53183200A12910318775C
:1055DB00A7662E54B5453CBDCBAC429ED98F50FB34
:1055EB00EFEA66D8FDC9744204538D6116709F04AF
:1055FB002015A9273236BBCE4CDFC5ED5EFCD78814
:10560B006899E1AB7ABAF35285430C7197601E141B
:10561B00A1052837B3263ADECDCF44FDDFEC5698F3
:10562B00E98960BBFBAA726306728F4014519D25FA
:10563B002234AB063017B9EF4EFEC7CC5CDDD5A9D3
:10564B006AB8E38A789BF17387620E5095411C35DB
:10565B00A3242A16B10738FFCFEE46DCDDCD54B9B3
:10566B00EBA8629AF98B7084089581A71AB693C23E
:10567B002CD3A5E13EF0B7084019C92B523ADB4EAB
:10568B00645FED6D767CFF94898500B79BA612D283
:10569B00ADC324F1BFE03618C109483BD32A5A5E8B
:1056AB00E54F6C7DF76C7EA50AB48386189791E362
:1056BB002EF2A7C03CD1B5294238CB0A501BD96F6B
:1056CB00667EEF4C745DFDB58BA40296998710F343
:1056DB00AFE226D0BDC13439C3284A1AD10B587F4B
:1056EB00E76E6E5CF54D7CC60CD785E51EF4978096
:1056FB002891A1A33AB2B34A445BCD695678DF0C2B
:10570B00601DE92F723EFBD68DC704F59FE4169002
:10571B00A98120B3BBA2325AC54B4C79D7685E1C0A
:10572B00E10D683FF32E7AE70EF687C41CD595A1E1
:10573B002AB0A3823893B16B467ACF485459DD2DEA
:10574B00623CEB0E701FF9F78FE606D49DC514B1C2
:10575B00ABA02292B983307BC76A4E58D5495C3DCA
:10576B00E32C6A1EF10F788503028507008505017E
:10577B00E77583018882F00809DAF5228503028533
:10578B0007008505017583018882E0F70809DAF5C2
:10579B00228503028507008505017583018882E058
:1057AB007583018982F00809DAF0228507007400FD
:0657BB0093FAFB7901E9FD
:1057C10093F60908DAF9228507007901E993F609C8
:1057D10008DBF922850700740093FAFB7901E9934C
:1057E100C083C0827583018882F0D082D08309088A
:1057F100DAEC227900E993C083C082758301888243
:10580100F0D082D0830908DBEC22D295C2957E07C5
:105811007D14DDFEDDFEDDFEDDFEB295B295DEF02E
:10582100DFECD2C522C0E0EEC0E0741C7EFFDEFEDC
:10583100D5E0F9DFF5D0E0FED0E02285070178ADB3
:105841007583018982E07583018882F00908758377
:10585100018982E07583018882F0090875830189D5
:1058610082E07583018882F009087583018982E0ED
:105871007583018882F00D0D0D850501850302C038
:1058810000C37B047583018882E0F5F0E795F0752C
:1058910083018882F01819DBEBD00050028024C309
:1058A1007583018882E09A187583018882E09400EB
:1058B100187583018882E09400187583018882E05D
:0358C1009400222E
:1058C40085070178AD7583018982E075830188823B
:1058D400F009087583018982E07583018882F009E3
:1058E400087583018982E07583018882F00908754F
:1058F40083018982E07583018882F0850501C000F7
:10590400C37B04E7F5F07583018882E095F0758325
:10591400018882F01819DBEBD00080808507007EB7
:1059240000200703E680067583018882E06EFE0886
:10593400DBEF227583727582F77B0312733B22853A
:105944000700C308087583018882E0F5F074013507
:10595400F07583018882F0187583018882E0F5F080
:10596400740035F07583018882F0C308758301885B
:1059740082E075F0E895F0187583018882E075F08F
:105984000395F0401D187583018882E00475830136
:105994008882F0E4087583018882F00875830188A1
:1059A40082F0227F6412580B7F6412580B7F6412BA
:1059B400580B7F6412580B7F6412580B7F64125883
:0C59C4000B7F809024841260CF80FE22B4
:10757A004256565950E43AEC2000F009603B00317B
:10758A003F0F0C3830D7F20230303D020000009E27
:10759A00000000001F500498FF010000041430414D
:1075AA001080014020000280CD4C5555FD93220FDA
:1075BA00000404888462C168387EBEE7DFFF411098
:1075CA0004C1FFFFFF1F04010C411004C1FFFFFFAC
:0F75DA001F04010CC3300CC3FFFFFF3F0C030C59
:1032EB007F011236E420B535DFFEDFFEDFFEDFFEA9
:1032FB00DFFEDFFEDFFEDFFEDFFEDFFEDFFEDFFEDB
:10330B00DFFEDFFEDFFEDFFEDFFEDFFEDFFEDFFECA
:10331B00DFFE20B5087F001236E4020034789CC330
:10332B007583018882E0F5F0740135F08882F0181E
:10333B008882E0F5F0740035F08882F0B404004028
:10334B00087F001236E40200347FFFDFFEDFFEDF72
:10335B00FEDFFEDFFEDFFE12338C7F001236E47DD4
:10336B000F7E047FADD20712361578AD75830188B9
:10337B0082E044028882F07D0F7E047FAD12367F9F
:10338B0022C282758301758200E50EFB7A10000064
:10339B000000B282BA020040051254FADAF012545D
:1033AB00F87A2200000000B282BA02004007000047
:1033BB00000000DAEE00000012345C007C007A089A
:1033CB00E013502C00000000B2820CBC0505125417
:1033DB00FA801D000000000000BA020040031255E5
:1033EB000BDADEA30000DBD600000012345C804059
:0333FB00000000CF
:1033FE0000B2827C00BA02004017000000000000FC
:10340E000000000000B2820000000000000000DAA0
:10341E00AD00000000A3000000000000B28200001A
:10342E0000DB9800000012345C0000000000000079
:10343E000000007A0800000000B282BA02004007C5
:10344E000000000000DAEE00000000C28222000040
:10345E000000B28212550700000000B28212550918
:10346E007A0600000000B282BA020040051254FA39
:10347E00DAF01254F600000000B282125507000076
:10348E000000B282222092247D0F7E047FADD207EF
:10349E0012361578B07583018882E0440F7583016A
:1034AE008882F07D0F7E047FAD12367F7D0F7E0405
:1034BE007FADD20712361578AD7583018882E04450
:1034CE00028882F07D0F7E047FAD12367F2092FD42
:0834DE007D067E047FADD207DC
:1034E60012361578AD7583018882E0A2E24004A207
:1034F600E140237D0F7E047FADD20712361578B0EA
:103506007583018882E0440F8882F07D0F7E047FF8
:10351600AD12367F80BF7D0F7E047FADD207123697
:103526001578AD7583018882E054FD8882F07D0FA1
:103536007E047FAD12367F7D057E047FADD20712F5
:10354600361578AD8882E070217D0F7E047FADD27E
:103556000712361578B08882E0440F8882F07D0F16
:103566007E047FAD12367F0234DB14146085B4818D
:103576000040030234F9780FF6D285D2837D1078A5
:10358600AD8882E0FEC2077F26C006123615D00639
:103596007D0F7E047FADD20712361578B08882E0A3
:1035A600440F8882F07D0F7E047FAD12367F780F40
:1035B600E6F50322C2C2D290123BD7123BDE22C2EC
:1035C60090C0077F08339281D2C2A280C2C2DFF5C3
:1035D600C28133D00722D2C2A280C2C233D2C2A2D3
:1035E60080C2C233D2C2A280C2C233D2C2A280C2B9
:1035F600C233D2C2A280C2C233D2C2A280C2C233F6
:04360600D2C2A2800A
:10360A00C2C233D2C2A280C2C23322C2907A01DAC3
:10361A00FEED123644EFF874001235DC200703F68B
:10362A00800EC083C0827583018882F0D082D083E5
:10363A0008DEE47A01DAFED29022339281D2C2C243
:10364A00C2339281D2C2C2C2339281D2C2C2C233BF
:10365A009281D2C2C2C2339281D2C2C2C233928191
:10366A00D2C2C2C2339281D2C2C2C2339281D2C200
:10367A00C2C2C28122C2907A01DAFEED4420123619
:10368A0044FDEFF8C083C0827583018882E0D0824E
:10369A00D08312364408DEEC7A01DAFED29022C2D6
:1036AA00907A0ADAFE740F442012364490757AEF43
:1036BA007007743C9354FD8005743C93440212369F
:1036CA0044743D93123644743E93123644743F93C5
:1036DA001236447A0ADAFED29022C2907A0ADAFEC6
:1036EA007404442012364490757AEF60237413935D
:1036FA001236447412931236447411931236447477
:10370A00109354FD54FE1236447A0ADAFED29022FD
:08371A0074139312364474127B
:103722009312364474119312364474109344024433
:10373200011236447A0ADAFED29022C2907A0ADA6A
:10374200FE7404442012364490757AEF702174138B
:1037520093123644741293123644741193123644FF
:1037620074109354FE1236447A0ADAFED29022740E
:103772001393123644741293123644741193123610
:103782004474109344011236447A0ADAFED290222B
:10379200C2907A0ADAFE7409442012364490757A8D
:1037A200EF700774249354FE80057424934401122D
:1037B2003644742593123644742693123644742781
:1037C200931236447A0ADAFED29022C290740444EA
:1037D200201235C590757A7413931235C5741293FD
:1037E2001235C57411931235C5EF600B74109354E2
:1037F2007F1235C5D2902274109344801235C5D2FF
:1038020090227F001236A97AC8DAFE7A64DAFE7F45
:10381200001236E47AC8DAFE7A64DAFE7F011237E1
:1038220092227F001236A97F001236E47D097E04BF
:103832007FADD20712361578AE7583018882E044D7
:0D384200047583018882F07D097E047FAD4E
:10384F0012367F78AE7583018882E054FB75830151
:10385F008882F07D097E047FAD12367F7F0012379C
:10386F0092C282227F001236E47AC8DAFE7A64DAD4
:10387F00FE7F011237927AC8DAFE7A64DAFE7F0190
:10388F001236A9227F011237927AC8DAFE7A64DAE9
:10389F00FE7F011236E4227F001236A97AC8DAFEC3
:1038AF007A64DAFE7F001236E47AC8DAFE7A64DAD6
:1038BF00FE7F001237927AC8DAFE7A64DAFE7F0151
:1038CF001237CD227F001236A97AC8DAFE7A64DA6F
:1038DF00FE7F001237927AC8DAFE7A64DAFE7F0032
:1038EF001236E47AC8DAFE7A64DAFE7F001237CD38
:1038FF0022C290740F44201235C590757AEF70076D
:10390F00743C9354FE8005743C9344011235C57486
:10391F003D931235C5743E931235C5743F931235DE
:10392F00C5D290227F001239007F011239437F01E7
:10393F00123900227D187EFFDEFEDDFADFF622C28D
:10394F00C2C281D2907AC8DAFE90757A7F007E0962
:10395F007D007AC8DAFE7A64DAFEC290ED44201256
:10396F00364474032F9312364474022F9312364445
:04397F0074012F930D
:1039830012364474002F931236447A0ADAFED29028
:1039930074042FFF0DDEC77F247E077D097AC8DA02
:1039A300FE7A64DAFEC2907A0ADAFEED4420123619
:1039B3004474002F9312364474012F9312364474C7
:1039C300022F9312364474032F931236447A0ADA81
:1039D300FED29074042FFF0DDEC37AC8DAFE7A6438
:1039E300DAFEC2907A0ADAFE9075BA741144201294
:1039F30036447E0E7A00EA931236440ADEF87A0AD7
:103A0300DAFED2907AC8DAFE7A64DAFEC2907A0AD3
:103A1300DAFE9075C8741244201236447E0B7A0085
:103A2300EA931236440ADEF87A0ADAFED290123AA0
:103A3300DF7F0612394390757A782B741F93F6084B
:103A4300741E93F608741D93F608741C93F67D0791
:103A53007E047F26C2071236157826E6B40A005084
:103A630007782BE6547F8003782BE64440F6123B1D
:103A73004C123ADF7F061239437D077E047F26C24C
:103A8300071236157826E6B40A005007782BE65459
:093A9300BF8003782BE64420F605
:103A9C00123B4C123ADF7F061239437D077E047FBE
:103AAC0026C2071236157826E6B40A005007782B82
:103ABC00E654DF8003782BE6F6123B4C123ADF7F9C
:103ACC00061239437D077E047F26C207123615780D
:103ADC0026E6227AF0DAFE7A82DAFE90757AC290C5
:103AEC007A0ADAFE740F44201235C5743C931235F1
:103AFC00C5743D931235C5743E931235C5743F930E
:103B0C0044101235C57A0ADAFED2907F041239437A
:103B1C007AF0DAFE7A82DAFE740F44201235C5741C
:103B2C003C931235C5743D931235C5743E931235D2
:103B3C00C5743F9354EF1235C57A0ADAFED290223F
:103B4C00740744201235C5782BE61235C508E612E9
:103B5C0035C508E61235C508E61235C5D290227A6D
:103B6C00C8DAFE7A64DAFE90757A740F4420123546
:103B7C00C5743C931235C5743D931235C5743E9390
:103B8C001235C5743F9344101235C57A0ADAFED249
:103B9C00907F141239437AC8DAFE7A64DAFE740F15
:103BAC0044201235C5743C931235C5743D931235BF
:103BBC00C5743E931235C5743F9354EF1235C57AD4
:033BCC000ADAFE14
:103BCF00D2907F141239432212393312394E229078
:103BDF00757A78AD741493C083C08275830188821F
:103BEF00F0D082D08308741593C083C0827583018F
:103BFF008882F0D082D08308741693C083C08275F8
:103C0F0083018882F0D082D08308741793C083C059
:103C1F00827583018882F0D082D083C2907A0ADACB
:103C2F00FE7405442012364478B07583018882E013
:103C3F00440412364478AF8882E012364478AE8856
:103C4F0082E012364478AD8882E01236447A0ADA7E
:103C5F00FED2907AC8DAFE7A64DAFEC2907A0ADA75
:103C6F00FE7405442012364478B08882E054FB126B
:103C7F00364478AF8882E012364478AE8882E012FC
:103C8F00364478AD8882E01236447A0ADAFED29052
:103C9F007AC8DAFE7A64DAFE222092217D0F7E0442
:103CAF007FADD20712361578B07583018882E04454
:103CBF000F8882F07D0F7E047FAD12367F7D0F7EE1
:103CCF00047FADD20712361578AD7583018882E077
:103CDF0044028882F07D0F7E047FAD12367FD2AF13
:0D3CEF002092FDC2AF7D067E047FADD2079E
:103CFC0012361578AD7583018882E0A2E24004A2E9
:103D0C00E140237D0F7E047FADD20712361578B0CB
:103D1C007583018882E0440F8882F07D0F7E047FDA
:103D2C00AD12367F80BB7D0F7E047FADD20712367D
:103D3C001578AD7583018882E054FD8882F07D0F83
:103D4C007E047FAD12367F7D057E047FADD20712D7
:103D5C00361578AD8882E070217D0F7E047FADD260
:103D6C000712361578B08882E0440F8882F07D0FF8
:103D7C007E047FAD12367F023CED14146085B48155
:103D8C00004003023D0F780FF67D1078AD7583016E
:103D9C008882E0FEC2077F26C006123615D0067850
:103DAC000FE6F50322200F30C2907A01DAFE74017F
:103DBC00442012364474EC123644743A123644746D
:103DCC00E412364474501236447A01DAFED2907AF8
:103DDC0001DAFE7A01DAFE22C2907A01DAFE74016F
:103DEC00442012364474EC123644743A123644743D
:103DFC00FE12364474401236447A01DAFED2907ABE
:103E0C0001DAFE7A01DAFE221239337F001236A96A
:103E1C00227D097E047FADD20712361578AD7583ED
:073E2C00018882E0A2E02200
:103E33009075B27A06C002EA2408FD7E047FADD2F3
:103E4300071236157FB17B041257F478AD79B17B35
:103E530004C083C0827583018882E0F5F08982E023
:103E6300D082D08365F06005D002023EF90809DBF9
:103E7300E0C37404F5F0E58295F0F582E4F5F0E52E
:103E83008395F0F583D002DAAC7D117E0E7FADD23F
:103E9300071236159075BA7FBB7B0E1257F478ADB7
:103EA30079BB7B0E7583018882E0F5F07583018908
:103EB30082E065F06004D003803C0809DBE67D12F4
:103EC3007E0B7FADD2071236159075C87FB87B0B7A
:103ED3001257F478AD79B87B0B7583018882E0F5CE
:103EE300F07583018982E065F06004D003800708E0
:103EF30009DBE67F00227FFF22C0077D047E047F6B
:103F0300ADD20712361578B07583018882E0D007E9
:103F1300EF700454FE800244018882F07D047E0425
:103F23007FAD12367F22C0077D0F7E047FADD2079F
:103F330012361578AE7583018882E0D007BF00047E
:103F4300547F800244808882F07D0F7E047FAD120F
:093F5300367F22C2907A0ADAFEE0
:103F5C00D2907AC8DAFE7A64DAFEC2907A0ADAFE75
:103F6C009075D3741244201236447E0B7A00EA9377
:103F7C001236440ADEF87A0ADAFED2907AC8DAFEF1
:103F8C007A64DAFE227AC8DAFE7A64DAFEC2907AB1
:103F9C000ADAFE9075DE741244201236447E0B7AD7
:103FAC0000EA931236440ADEF87A0ADAFED2907AE4
:083FBC00C8DAFE7A64DAFE2285
:10742A001502FD00110100A3DBA3D6A3B1A3B5A3E6
:10743A00DDBFAABBFACE1502FD00110100A3DBA332
:10744A00D6A3B1A3B5A3DDB9D8BBFABA1806FD0015
:10745A001401015B7631355DBFAACABCC2B7BEB69C
:10746A00BCC7C2BC861605FD001201015B76313528
:10747A005DC2B7BEB6BCC7C2BCD6D0E51806FD0011
:10748A001401015B7631355DBDE1CAF8C2B7BEB6FB
:10749A00BCC7C2BC8B1806FD001401015B763135EE
:1074AA005DC4E3D2D1BDF8C8EBB8DFCBD9AA1605C3
:1074BA00FD001201015B7631355DC4E3D2D1CFC242
:1074CA00B8DFCBD9C71806FD001401015B76313548
:1074DA005DB5E7C1BFB5CDC7EBB3E4B5E7E00F557E
:0E74EA00AA000008F11122334455667788711C
:103FC400200A0302411ED212C20D7F267D007BDF30
:103FD4007A01124BE8D212C20D7F267D007BEF7A64
:103FE40007124BE8C20DD2127F267DAD7C007B0008
:103FF4007A05124C78EF600302411EC20DD2127F83
:10400400267DB27C007B6D7A04124C78EF6003024B
:10401400411ED212D20D7F267D007B107A01124BF5
:10402400E8D212D20D7F267D007B007A09124BE87C
:10403400D20DD2127F267DB67C007B007A05124C0D
:1040440078EF600302411ED20DD2127F267DBB7C25
:10405400007B6D7A04124C78EF600302411E78B83D
:104064007583018882E06400700302410FD212C29A
:104074000D782B7B34E4F608DBFC78CB7471758304
:10408400018882F0E4187583018882F07E0478CA7E
:104094007583018882E0FC78CB7583018882E0FB1C
:1040A4007A347F267D00C006124BBED006EF706ABC
:1040B40078CB7583018882E0C334347583018882A8
:1040C400F0187583018882E034007583018882F0DA
:1040D400DEBCD212C20D782B7400F608F608F6087E
:0340E400F608F6E5
:1040E7007C007B007A057F267D00124BBEEF702790
:1040F700D212D20D782B7400F67C007B017A017FF7
:10410700267D00124BBE800F7DB27FBB12416650E9
:10411700031242761245D4228505008507017B04E8
:104127007583018882E0F5F07583018982E065F087
:1041370070070809DBEAD380258505008507010993
:104147000809080908C37B047583018982E0F5F033
:104157007583018882E095F01819DBEC4000228511
:104167000500850701090809080908C37B04758349
:10417700018982E0F5F07583018882E095F01819CE
:10418700DBEC2278C7E47583018882F008747175C7
:1041970083018882F078C979AE7583018982E070DE
:1041A70003024270F5F07404A47583018882F07EDF
:1041B70001C20DD2127F267D0078C77583018882E0
:1041C700E0FC78C87583018882E0FB78C9758301B4
:1041D7008882E0B46800500AFAE47583018882F0A7
:1041E700802B7A68C394687583018882F078C875D4
:0641F70083018882E0C391
:1041FD0034687583018882F0187583018882E034F4
:10420D00007583018882F0C002C006124C78D0067A
:10421D00D002EF704E7D007404F5F0EA84FB7FBB95
:10422D00C006C005C003124166D003D005D00650AC
:10423D001D05060D0D0D0DDBE578C9758301888211
:10424D00E060030241B874FFF5077400FD22850696
:10425D0007EF6401600D78AE7583018882E0C39F1E
:10426D0004FD227400F507FD2212418AED701CEF4A
:10427D006016D212C20D782B7400F67C007B017A89
:10428D00017F267D00124BBE0245D378BFEF7583AB
:10429D00018882F078C0ED7583018882F078BF794E
:1042AD00C27583018882E014C3F5F07402A475838E
:1042BD00018982F019E5F07583018982F0C30975D2
:1042CD0083018982E034057583018982F019758334
:1042DD00018982E034007583018982F079C378C049
:1042ED007583018882E0C3F5F07402A4758301899A
:1042FD0082F078BF79C57583018882E014C3F5F02B
:10430D007404A47583018982F019E5F07583018920
:10431D0082F0C3097583018982E034717583018947
:10432D0082F0197583018982E034007583018982D9
:10433D00F079C678C07583018882E0C3F5F0740406
:10434D00A47583018982F078CB7405758301888209
:10435D00F018E47583018882F078C3758301888233
:10436D00E0B43400506BC20DD2127F267D0078C1AF
:10437D007583018882E0FC78C27583018882E0FB39
:10438D0078C37583018882E0FA124C78EF600302DE
:10439D0045D3D212C20D7D2B7F0078C37583018862
:1043AD0082E0FB12578778CA7583018882E0FC781A
:1043BD00CB7583018882E0FB78C37583018882E029
:1043CD00FA7F267D00124BBEEF7003024487024533
:1043DD00D3C20DD2127F267D0078C17583018882EC
:1043ED00E0FC78C27583018882E0FB7A34124C7848
:1043FD00EF60030245D3D212C20D7D2B7F007B34BB
:10440D0012578778CA7583018882E0FC78CB758353
:0F441D00018882E0FB7A347F267D00124BBEEFD0
:10442C0060030245D378C27583018882E0C33434BB
:10443C007583018882F0187583018882E0340075D9
:10444C0083018882F078C37583018882E0C3943439
:10445C007583018882F0602378CB7583018882E0B4
:10446C00C334347583018882F0187583018882E027
:10447C0034007583018882F002436678CB747175C1
:10448C0083018882F018E47583018882F078C67500
:10449C0083018882E0B43400506BC20DD2127F26A7
:1044AC007D0078C47583018882E0FC78C575830132
:1044BC008882E0FB78C67583018882E0FA124C781A
:1044CC00EF60030245D3D212C20D7D2B7F0078C65C
:1044DC007583018882E0FB12578778CA758301883F
:1044EC0082E0FC78CB7583018882E0FB78C675830B
:1044FC00018882E0FA7F267D00124BBEEF6003023A
:10450C0045D30245B7C20DD2127F267D0078C47503
:10451C0083018882E0FC78C57583018882E0FB7A90
:10452C0034124C78EF60030245D3D212C20D7D2BAE
:10453C007F007B3412578778CA7583018882E0FC30
:05454C0078CB7583012E
:104551008882E0FB7A347F267D00124BBEEF7072B9
:1045610078C57583018882E0C334347583018882FC
:10457100F0187583018882E034007583018882F028
:1045810078C67583018882E0C3943475830188827B
:10459100F0602378CB7583018882E0C3343475835E
:1045A100018882F0187583018882E03400758301E7
:1045B1008882F0024499D212C20D78C075830188B5
:1045C10082E0782BF67C007B017A017F267D001248
:1045D1004BBE22C20DD2127F267D007C007B057A64
:1045E10034124C78EF60030246A1D212D20D7D2B1A
:1045F1007F007B341257877C007B057F267D007A04
:1046010034124BBE6003024A47C20DD2127F267D8F
:10461100007C007B397A34124C78EF60030246A1AA
:10462100D212D20D7D2B7F007B341257877C007B09
:10463100397F267D007A34124BBEEF6003024A4770
:10464100C20DD2127F267D007C007B007A05124CC0
:1046510078EF704CD212D20D7D2B7F007B05125763
:10466100877C007B007F267D007A05124BBEEF60C0
:0E46710003024A47C20DD2127F267D007C0054
:10467F007B6D7A04124C78EF7018D212D20D7D2B0D
:10468F007F007B041257877C007B6D7F267D007A2D
:10469F0004EF22850700850501097583018882E0F3
:1046AF0075F002A47583018982F019E5F075830115
:1046BF008982F022850700850501097583018882AB
:1046CF00E075F004A47583018982F019E5F0758314
:1046DF00018982F02285070085050109087583018C
:1046EF008882E075F004A485F00A7583018982F051
:1046FF0018197583018882E075F004A4C3250A7523
:10470F0083018982F02278AB79AD7583018882E0CD
:10471F007583018982F008097583018882E07583AA
:10472F00018982F0D212C20D7F267D007BDF7A01D4
:10473F00124BE8D212C20D7F267D007BEF7A071253
:10474F004BE8C20DD2127F267DAF7C007B007A052D
:10475F00124C78EF6003024A4778B0758301888264
:10476F00E0B4F0004003024A4778B07583018882B5
:10477F00E0602478AD79B27B027583018882E0F521
:10478F00F07583018982E065F0700C0809DBEAC2DD
:09479F000D124B05024A4778B0E7
:1047A8007583018882E07037E478B4758301888264
:1047B800F00874057583018882F079B778B5758338
:1047C800018882E0C3346C7583018982F0181975F9
:1047D80083018882E034007583018982F0804E7FEE
:1047E800B07DB41246A278B57583018882E0C334DF
:1047F800057583018882F0187583018882E034008A
:104808007583018882F07FB07DB61246C378B7758C
:1048180083018882E0C334717583018882F018753A
:1048280083018882E034007583018882F0D212C245
:104838000D7D2B7FAD7B02125787C378B575830139
:104848008882E0FB187583018882E0FC7F267D0062
:104858007A02124BBEEF6003024A47D212C20D7DA4
:104868002B7F867B04125787C378B77583018882AC
:10487800E0FB187583018882E0FC7F267D007A04BE
:10488800124BBEEF6003024A4778B0792B7421F7C8
:10489800097583018882E004F70809758301888215
:1048A800E0F778AD097583018882E0F70809758318
:0548B800018882E0F719
:1048BD00D212C20D7C007B007F267D007A05124B43
:1048CD00BEEF6003024A47D21B200A03024A47D2B9
:1048DD0012D20D7F267D007B107A01124BE8D21289
:1048ED00D20D7F267D007B007A09124BE8D20DD2C6
:1048FD00127F267DAF7C007B007A05124C78EF602D
:10490D0003024A4778B07583018882E0B4F0004015
:10491D0003024A4778B07583018882E0601F78AD45
:10492D0079B27B027583018882E0F5F07583018988
:10493D0082E065F070070809DBEA024A4778B07536
:10494D0083018882E07037E478B47583018882F042
:10495D000874057583018882F079B778B575830180
:10496D008882E0C3346C7583018982F018197583D0
:10497D00018882E034007583018982F0804E7FB01A
:10498D007DB41246A278B57583018882E0C33405E3
:10499D007583018882F0187583018882E034007573
:1049AD0083018882F07FB07DB61246C378B77583D8
:1049BD00018882E0C334717583018882F018758394
:1049CD00018882E034007583018882F0D212D20D05
:0C49DD007D2B7FAD7B02125787C378B59D
:1049E9007583018882E0FB187583018882E0FC7F6A
:1049F900267D007A02124BBEEF704378B0792B7492
:104A090021F7097583018882E004F7080975830194
:104A19008882E0F778AD097583018882E0F7080993
:104A29007583018882E0F7D212D20D7C007B007F6A
:104A3900267D007A05124BBEEF7003126D16228592
:104A4900070074FD7583018882F00808EB758301FE
:104A59008882F00874017583018882F008740375EF
:104A690083018882F008E82BF8C003C007EB24050E
:104A7900FBC207125920D007D003700022789A741C
:104A8900557583018882F07899E47583018882F0ED
:104A9900124AF553923F439140C2A31276AE127661
:104AA900AD1276B0C0077FFFDFFEDFFEDFFEDFFE5F
:104AB900DFFEDFFEDFFEDFFEDFFEDFFED007127660
:104AC900B11276AF1276B51276B81276B922789A03
:104AD900E47583018882F07899E47583018882F00E
:104AE900124AFC53927F53917FD2A32275AB08756A
:0C4AF900AAFF2275AB0875AAFF2222223A
:104B050078B07583018882E07037E478B4758301E5
:104B15008882F00874057583018882F079B778B5C5
:104B25007583018882E0C3346C7583018982F0182E
:104B3500197583018882E034007583018982F080CC
:104B45004E7FB07DB41246A278B57583018882E0A8
:104B5500C334057583018882F0187583018882E066
:104B650034007583018882F07FB07DB61246C37824
:104B7500B77583018882E0C3346D7583018882F03F
:104B8500187583018882E034007583018882F0D22C
:104B950012C20D7D2B7F867B04125787C378B775AC
:104BA50083018882E0FB187583018882E0FC7F26FB
:094BB5007D007A04124BBEEF22D0
:10732200EB6015C2AFEFF875C78975C5011273EF2F
:10733200F608A3DBF812741A22EB6022C2AFEFF850
:1073420075C78975C5011273EFC083C08275830149
:107352008882F0D082D08308A3DBEB12741A22E574
:1073620083B472005003020034B4740050F8EB602E
:1073720015C2AFEFF875C78975C502E6081273FE2C
