:05002F000401A1FFFF28
:107634000A00000141A0A1A2A3A4A50A00000441DC
:1076440080089009A00A0A00001041A0A1A2A3A4E6
:10765400A50500A400000202DF01040000000204EA
:047664000000010120
:03000000020034C7
:0300030002716423
:03000B00027196E9
:0300130002717CFB
:03001B000271B5BA
:0300230002713433
:10713400C28CC28253AB7FC2AFC2AC7581A9749EAC
:10714400C0E07465C0E032C2AF7F0112547C20B548
:107154001275A8007581A97434C0E07400C0E032CF
:1071640030B5E453AB7FC2AFC2ACC2A87581A97479
:1071740087C0E07405C0E032C2AF53AB7FC2AFC278
:10718400ACC2AA7581A974C4C0E07401C0E032D253
:10719400AF32C0E07401251FF51F5012D0E0C28C3D
:1071A400C2A97581A974D4C0E07409C0E032D0E0EA
:1071B4003220B526C2AFC0077F0A12547CD00730F4
:1071C400B504D2AF801453AB7FC2AFC2ACC2AB75AF
:1071D40081A9743AC0E07401C0E032E5BB4470F5A3
:1071E400BB75940075930175960075950075B20092
:1071F40075B12C75B40075B300789A7583028882D2
:10720400E064557018759200759144C2A3D297D268
:1072140096D292D291D2B0D2B1C2C48022759200D9
:10722400759104D2A3C297C296D292D291D295C23A
:1072340095C295C295C295C295C2B0C2B1D2C4C21C
:1072440085C2A6C284D2A4D295D2B5D2B3D2B2D2C8
:1072540080C284C2C6C286C2C1C287C283C2B4C24B
:0F72640085C2A6C295C295C295D2C5D291D290CD
:10727300D280D292D281C2C2C282C2952212729CA1
:10728300126D2B1200FDC29CC2AC2212729C126DB5
:107293002B120110C29CC2AC22E5BB4470F5BB7536
:1072A300940475930175960075950075B21075B1C8
:1072B3002C75B40075B300789A7583028882E064F4
:1072C300557012759200759144C2A3D296D297D28B
:1072D30092D2918010759200759104D2A3C297C285
:1072E30096D292D291D295C2A4D2B5D2B3D2B2D20F
:1072F30080C284C2C6C286D2C1C287D283D2B4D26C
:1073030085D2A6D295D2B0D2B1C295C295D2C5D2FA
:10731300C4D291D290D280D292D281C2C2C282C24E
:027323009522B1
:100034007581A975A800D28AD288121385EF60034E
:1000440012131978A87400F6E5C120E30B20B50853
:1000540020B30578A87455F67581A975A800D28ACD
:10006400D28878A77600D8FCD291C2C51235BDD209
:10007400C5123E36EF6007740712134D80B2789AAA
:1000840074FF7583018882F01271DF120A1EC28B1D
:10009400C28975A800758F00E58F4420F58FD2AB17
:1000A400126D3AE58F4440F58FC299C298D29CC232
:1000B400AC123827D295C298C299C289C28BC28D1C
:1000C400C28FC28CC28ED2C4D2C5E58F4440F58F94
:1000D400D2B0D2B1E4D29CF5A8D2ACD2A8D288D204
:1000E400AF0000000000E47A030265D9758782003E
:1000F4000002003412633C80FB7FFA125499C285DB
:100104007F30125499D2857F0312547C78A97600EB
:10011400D8FC7892E490003393232375830188827A
:10012400F0120A1E751FD2E444204401F589E44408
:10013400044401F58822C2AFC2ACC2AB1272801271
:100144005FF9D220D225120A1E120AB930141BC23A
:100154000DD2127F267D007B3F7A00124BEB7F2667
:090164007D00D212C20D124CFA0A
:10016D00EF6010C2C57F0212619E7F8090243ED247
:10017D002680077F80902469C2261260D2D2C512D4
:10018D000CC8201C0D7583727582EC7FA17B081243
:10019D00738CD2C57FFA12547C7FFA12547C7FFA8D
:1001AD0012547C02003475C760000000000000008E
:1001BD00000000000080F2127280126D4CD2B1D29C
:1001CD00B0C207D206C2057F267B00125C7FEB60B2
:1001DD0014640270107826E6647F70097827E6644F
:1001ED007F700280C1126D2B127280120A1ED225F1
:1001FD00120AB9120CC8301C028097758372758271
:10020D00EC7FA17B0812738C200A0302052C0203DC
:10021D001F201E1120110E125FF97F2690245712F8
:10022D0060D20204F17583727582847507AD7B040B
:10023D0012733E78AD7583018882E064CB7023081C
:10024D007583018882E064C4701808758301888203
:10025D00E064B4700D087583018882E064A87002B3
:10026D00800302051220240302031F758372758219
:10027D00A07507AD7B0A12733EC20DC2127F267D9B
:10028D00007B3F7A00124BEBD212C20D7F267D0010
:10029D007C017B017A1B124C50EF7800758301882D
:0902AD0082E078987583018882D3
:1002B600F07583727582247507B77B0A12733E75D3
:1002C60083727582387507C17B0A12733E75837215
:1002D60075824C7507CB7B0A12733EC00078987501
:1002E60083018882E0D00060307A000ABA0104797E
:1002F600B78009BA020479C1800279CB78AD7B0A4E
:100306007583018882E0F5F07583018982E065F0E6
:1003160060030204D10809DBE7200A0302041D1268
:100326004D65EF600302041DED640D600AED640E79
:100336007002807802041DC005124D9EC007125F30
:10034600F9D007D005C0001212D87F261260D27FDE
:10035600C812547C7FC812547CD007EF6003020099
:1003660034D212C20D7F267D007B3F7A00124BEB02
:10037600EF6002802AC20DD2127F267DAD7C9D7B66
:100386001B7A0C124C7BEF600280147FAD7D807B64
:100396000C12625A7F817D017880E6FB1260E67F4F
:1003A600C812547C7FC812547C020034C005125116
:1003B600B1C007125FF9D007D0051212D87F2612F6
:1003C60060D27FC812547C7FC812547CD212C20DF0
:1003D6007F267D007B3F7A00124BEBEF6002802A7E
:1003E600C20DD2127F267DAD7C9D7B1B7A0C124CF2
:0803F6007BEF600280147FAD73
:1003FE007D807B0C12625A7F817D017880E6FB1234
:10040E0060E67FC812547C7FC812547C02003412FE
:10041E003FC7202818125FF97F269024A91260D2B8
:10042E007FC812547C7F6412547C020034EF74FF38
:10043E0078A97583018882F0D2950000000020957E
:10044E0016C285C284D2A4125FF97F269024C912E7
:10045E0060D27FFA12547CC285C284D2A412116774
:10046E00D2C5D2C47FFA12547C78A97583018882D2
:10047E00E0700D7F2690254F1260D27FFA12547CC9
:10048E00740170247583727582BC7507AD7B011281
:10049E00733E78AD7583018882E06403600C7583CA
:1004AE00018882E06401600280117F5012580E7F35
:1004BE006412547C7F5012580E80057F6412580EC1
:1004CE0002102FC00078987583018882E0D0008AD0
:1004DE00F065F060030202F1125FF97F269024614D
:1004EE001260D2123FC702102FC2A4D2837E017BAC
:1004FE00017F14C006C00312580ED003D006DBF1E4
:10050E00DEEF8027125FF97F269024A01260D28042
:10051E00D2125FF97F269024A91260D280C5125F95
:10052E00F97F269024141260D280007FC812547C6A
:10053E007FC812547C7FC812547C7FC812547C0230
:0D054E0000347583727582F67507007B011D
:10055B0012733E78007583018882E064AA12728060
:10056B00C29CC2AC120AB91212BCC20DC2127F26B7
:10057B007D007BDF7A01124BEB0206E7C2A47F0101
:10058B001237957F011236E7D282C2957FC812547B
:10059B007C7FC812547C7FC812547C7FC812547C59
:1005AB007FC812547C7FC812547CC282D2951238F9
:1005BB0027C298C299C289C28BC28DC28FC28CC20C
:1005CB008ED2ACD2A8D2AF80FEC2A4D283C2C4C298
:1005DB0029C29CC2AC7F011236AC789CE4758301B6
:1005EB008882F0187583018882F07583727582ECAE
:1005FB007507A17B0812733E7583727582EB7507C5
:10060B00267B011273257826E6A2E0921EA2E192C8
:10061B0011A2B3B3920A200A0302055030111A75C6
:10062B0083727582F47507007B0112733E78007537
:10063B0083018882E06488601F127280C29CC2AC06
:10064B00120AB91212BCC20DC2127F267D007BDFCB
:10065B007A01124BEB0206E77583727582F575070B
:10066B00007B0112733E78007583018882E064AAD7
:10067B00606A127280C29CC2AC120AB91212BCC25E
:10068B000DC2127F267D007BDF7A01124BEB804C73
:10069B00300A49D20DD2127F267D007C197B3C7A21
:0706AB0001124CCD758372B2
:1006B2007582AF7F267B3C1273257B3C78007926BE
:1006C2007583018882E0F5F0E765F070060908DBC2
:1006D200EF80121212BCC20DC2127F267D007BDF98
:1006E2007A01124BEB200A1E78007455758301883B
:1006F20082F0087583018882F07583727582F57FB6
:10070200007B0212738C75A88C12349675837275F5
:10071200821A75078D7B0112733E798D758301896B
:1007220082E0540F6004C2268002D2267826E66454
:10073200FF70B208E664FF70AC08E664FF70A608BA
:10074200E664FF70A0C2C4D21CC28CC2A9EBC00076
:10075200780FF6D000792E78A17B04758301888208
:10076200E06770120908DBF37FA57D327BFF125828
:100772003F5003020034125411EB78AA75830188AA
:1007820082F01225AA123DB41232EE202940C2AFE5
:10079200E4A22C92E0C0E012728ED0E0A2E0922C91
:1007A200C29CC2AC78AA7583018882E070057F0181
:1007B20012547C7F207EBF208306DEFB7EBFDFF7E4
:1007C2007EFE3083F27F06DFFEDEF7120B94302CC2
:1007D20003124718D295000000002095187F0112DD
:0507E200547C2095107D
:1007E700125FF97F269024C91260D27FFA12547CD7
:1007F7007F2620150875A88C123496800675A88266
:10080700123CAB7826E664FF707A08E664FF7074E2
:1008170008E664FF706E08E664FF70687897758372
:10082700018882E0047583018882F0200805B408F6
:10083700008003B46400400E3015031212977F1432
:1008470012547C020034792E78A17B0475830188C9
:1008570082E06770120908DBF37FA57D327BFF1208
:10086700583F5003020034200802808412541112AA
:1008770025AA123DB41232EE302C06201B03124774
:10088700180207F778267912E66760030207F70868
:1008970009E66760030207F70809E66760030207CE
:1008A700F70809E66760030207F77897E47583019D
:1008B7008882F0792BE7300826C208A2E7920B78E6
:1008C7000074557583018882F0087583018882F06A
:1008D7007583727582F57F007B0212738C803B787B
:1008E7002DE66460700E782FE6700920150302006C
:1008F700340209D4792BE730E705300B1B8003203E
:100907000B167F00DFFEDFFEB2C57F00780EE6FB29
:05091700C2AF1232EE38
:10091C000207F7B20B782FE6B4003C300A34201EE5
:10092C000330112E7FAD7D267B07125775C212D274
:10093C000D7F267D007B107A01124BEBEF60087463
:10094C000912134D020034D22B7FAD7D267B07128A
:10095C00578A1229ED8065B401028060B4020280CE
:10096C005BB4033D300A2C201E03301126202B23B0
:10097C007FAD7D267B07125775C212D20D7F267D67
:10098C00007B107A01124BEBD22B7FAD7D267B07BF
:10099C0012578A7831E664027002D22D1229ED804A
:1009AC001BB404107831E679967583018982F012B4
:1009BC0029ED8008B451051229ED80001232EE3079
:1009CC00150312106E0207F7C28CC2A9C2AF123EF9
:1009DC00177583727582007B011273C130150D750A
:1009EC0083727582EC7F827B0812738C120CD3C2DB
:1009FC0085C284D2A4120EED7FFA12547C7FFA12B7
:100A0C00547C7FFA12547C7FFA12547C020034809E
:100A1C00E722E475D000C2D3C2D4F5B8F587F598B7
:100A2C00F58DF58BF58CF58AF5B8C202C20FD200A4
:100A3C00C201D20DC20AC209D208C215D214C21FF9
:100A4C00C211C21DC21CC218C21BC227C226C2259B
:100A5C00C203C224D221C22FC213C22EC22DC22B5A
:040A6C00C22878091B
:100A700076B3780876587FA3D2051259D3788B7451
:100A8000107583018882F07896E47583018882F07E
:100A90007897E47583018882F078A0E475830188F3
:100AA00082F0E478917583018882F0788A74007509
:100AB00083018882F0751D0022C20AC20790002FB0
:100AC0007F121257B975837275821A75078D7B0173
:100AD00012733E798D7583018982E0540F6004C2E0
:100AE000268002D2267583727582EC7507A17B0879
:100AF00012733E7583727582EB7507267B01127344
:100B0000257826E6A2E0921EC21E301400201E07A1
:100B10008018807A201E77C284D20D1266FAEF7098
:100B200006D20AD21E8067301E64126A62126B06F9
:100B3000126B4CEF601620B311126A62126B061230
:100B40006B4CEF600774181213848042126C57EFDD
:100B5000703C126C90EF7036C211E526642060067E
:100B6000E52664287024D2111270B0D20AC21E7811
:100B700027E6A2E450127828E6A2E1500BA2E55045
:100B8000071270E3126AEBEF7004D20AC21E121051
:100B900051D22922C20AC20790002F7F121257B9E0
:100BA00075837275821A75078D7B0112733E798D7C
:060BB0007583018982E05B
:100BB600540F6004C2268002D2267583727582EBBA
:100BC6007507267B011273257826E6A2E0921EC2DF
:100BD6001E301400201E0B801D020C78301E0302EE
:100BE6000C78C284D20D1266FAEF7007D20AD21EB2
:100BF600020C78301E7C9076557F261257B9C20DAE
:100C06007F267D147B05C207D205125AD8126A6266
:100C1600126B06126B4CEF601620B311126A621249
:100C26006B06126B4CEF6007741812138480431224
:100C36006C57EF703D126C90EF7037C211E5266469
:100C4600206006E52664287025D2111270B0EF7078
:100C560021D20AC21E7827E6A2E450127828E6A21C
:100C6600E1500BA2E550071270E3126AEBEFD20ACD
:100C7600C21EC224200A05121051804390765B7F63
:100C8600261257B9C20D7F267D147B02C207D205F4
:100C9600125AD8C20DD207D206D2057800E6FF7BDB
:100CA60002125B9CEB6402700E78007583018882E9
:100CB600E06461700280063013051259AAD224D26C
:100CC60029227583727582007B011273C1C22820A6
:100CD6000A03020E67201E06201103020DF3D2122C
:100CE600D20D7F267D007B107A01124BEBD20DD2FE
:0B0CF600127F267D00124CA4EF60036B
:100D0100020E677B04850501780A7583018982E0FB
:100D1100F60809DBF57583727582587F007B041232
:100D2100738CD20DD2127F267D007C127B287A0033
:100D3100124C50EF6003020E6775837275825C7FFF
:100D4100007B2812738CD20DD2127F267D007C1578
:100D51007B2B7A00124C50EF6003020E6775837291
:100D61007582847F007B2B12738C758372758284EC
:100D71007FAD7B2B12733E78AD7583018882E06471
:100D8100B97023087583018882E064E370180875DF
:100D910083018882E064B6700D087583018882E062
:100DA10064AB70028026D20DD2127F267D007C19A1
:100DB1007A017B2B124CCDEF6003020E67758372B3
:100DC1007582AF7F007B2B12738C8045D20DD212BE
:100DD1007F267D007C197A027B3C124CCDEF6003AB
:100DE100020E677583727582AF7F007B3C12738C34
:100DF100801F801D9076347F261257B9D20D7F2631
:100E01007D00124D3378017583018882E060028094
:100E110055D2287800E4A21E92E0A21192E1A20A22
:100E210092E27583018882F07583727582EB7F008F
:100E31007B0112738C30242E7800748875830188AD
:050E410082F0758372D0
:100E46007582F47F007B0112738C780074AA758317
:100E5600018882F07583727582F57F007B011273BB
:100E66008C12107E30145F30245CC224C20DC21274
:100E76007F267D007B3F7A00124BEBEF6006301336
:100E8600031259AAD212C20D7F267D007C017B581F
:100E96007A00124C50EF60083013031259AA8026CC
:100EA600D2247583727582007F007B5812738C780A
:100EB6000074AA7583018882F07583727582F67F45
:100EC600007B0112738C75837275821A75078D7B90
:100ED6000112733E798D7583018982E0540F600497
:100EE600C2268002D22622125FF930261930251634
:100EF600C2C57F0212619E7F2690243E1260D27F79
:100F0600FA12547CD2C5200A19C284C2C57F269023
:100F160024141260D23015077F6412580ED2C5020F
:100F26000FE3201E07201104741780157583727550
:100F3600828C7B017F0012733E7800758301888264
:100F4600E0B416667583727582587B047F0012734F
:100F56003E78007583018882E064FF7023087583FC
:100F6600018882E064FF7018087583018882E06456
:100F7600FF700D087583018882E064FF700280446B
:100F86007B047900780A7583018982E0F60809DB1B
:010F9600F565
:100F9700C284C2C4D2C57F0412619E7F26125F62DB
:100FA700120FF5C2C4D2C58033B41717C284C2C4A6
:100FB700D2C57F809024341260D2120FF5D2C4D2EA
:100FC700C58019C2847F809024A91260D2800DC287
:100FD700847F809024DA1260D2120FF57FFA1254C0
:100FE7007C7FFA12547C7FFA12547C020034C2854B
:100FF700C284D2A478967583018882E0701B20A3EF
:10100700117F5012580E7F6412547C7F5012580E75
:1010170080057F6412580E800F7F3212580E7F644E
:1010270012547C7F3212580EC285C284D2A4E47552
:10103700A8007FC812547C202D05D2950200347F6A
:10104700FA02003475A800020034301419C20DC228
:10105700127F267D007BDF7A01124BEB600630138F
:10106700051259AAD22422202E0CD22EE44401F5CF
:1010770089D28C751FFA2222201E06201103021125
:10108700627583727582847507AD7B0412733E782F
:10109700AD7583018882E064CB702308758301886E
:1010A70082E064C47018087583018882E064B470B4
:1010B7000D087583018882E064A87002800302111D
:1010C700627583727582A07507AD7B0A12733E75D0
:1010D700837275821B7507987B0112733E75837245
:0E10E7007582247507B77B0A12733E758372FB
:1010F5007582387507C17B0A12733E7583727582D6
:101105004C7507CB7B0A12733EC000789875830136
:101115008882E0D00060467A000ABA010479B78077
:1011250009BA020479C1800279CB78AD7B0A75834F
:10113500018882E0F5F07583018982E065F070062B
:101145000809DBEA8017BA04005012C000789875C8
:1011550083018882E0D0008AF065F070BC22124AD3
:10116500FF22125FF9302619302516C2C57F0212FB
:10117500619E7F2690243E1260D27FFA12547CD263
:10118500C5200A19C284C2C57F269024141260D2D4
:101195003015077F6412580ED2C5021240201E0773
:1011A5002011047417801575837275828C7B017FFD
:1011B5000012733E78007583018882E0B4165D7570
:1011C50083727582587B047F0012733E78007583A5
:1011D500018882E064FF7023087583018882E064DA
:1011E500FF7018087583018882E064FF700D08752B
:1011F50083018882E064FF700280327B0479007885
:101205000A7583018982E0F60809DBF5C2C4D2C5F7
:101215007F0412619E7F26125F62801FB4170EC283
:10122500C4D2C57F809024341260D2800EC2847FE0
:09123500809024A91260D2C2C508
:10123E008000300A37740170337583727582BC7505
:10124E0007AD7B0112733E78AD7583018882E06431
:10125E0001600C7583018882E064036002800D7F5B
:10126E00FA12547C7F809024BB1260D27FFA125403
:10127E007C2200000000007B08330000A2C1DBF9D5
:10128E0033F5F0000000000022C28CC2A9C2AF7577
:10129E0083727582007B011273C17583727582EC45
:1012AE007F827B0812738C120CD3123FC722758378
:1012BE00727582007B011273C17583727582EC7F29
:1012CE00A17B0812738C120CD322BF000DBD0D052D
:1012DE009024F580039024E38030BF01059024FE16
:1012EE008028BF02059025078020BF030590250F9B
:1012FE008018BF04059024EC8010BF0505902517BB
:10130E008008BF060590251F800022C0E0125FF9FD
:10131E00D0E0750A00750B00750C00F50D7F80127C
:10132E005F89E594440CF594E59354F3F593759425
:10133E000C7593017FFF12580E7FFF12580E22C0BC
:10134E00E0125FF9D0E0750A00750B00750C00F520
:10135E000D7F80125F89E594440CF594E59354F368
:10136E00F59375940C7593017FFF12580E7FFF1243
:10137E00580E02003422227583017582007BFF74A1
:02138E0000F06D
:1013900004A3DBFB7582007BFFE065827037A3DB73
:1013A000F87582007BFFE065827024A3DBF8780784
:1013B0007B807407F60408DBFB78077B80E608DB9C
:1013C000FC78077B80E668700908DBF97F00227FE4
:0813D00021227F20227F22224E
:1013D800004040FFFF6060040404040404068680A3
:1013E80000C0FCFFFF3C39C1F131FFFF11E1C10131
:1013F800020300FF7F180E033060FF7F00000F0F0D
:101408000080F03E1FF9E88CCC781F0BF8E80C0838
:101418000081C06030796FA723263C98B171E060E5
:1014280000C0C0C0C7FEF8C1FFDCF8DFC3C0E0C021
:10143800000000E0FC786060FF636060607040005E
:1014480000080E0B080808FC7F78C80808080C0C70
:1014580000804060301C0F030000030F1C78706090
:10146800003030F0F73EFCB038B0FC7F43C0C060BD
:1014780000380E1360E0FC1B1F0F7FF0E0FF030035
:101488000040301C0F0387DE60301C0F1F3C7020AB
:101498000000031E1C02E2E26EFEFA6E67F7E2002D
:1014A800000202FFFF00FFFF66FFFF6666FFFF0006
:1014B80020781C0F1F307F6FE0CFCFCCD8FFEF60B4
:1014C80000C070388FE740040404040404068680D2
:1014D8000060381EFF0D0101010101FFFF0101013C
:1014E800000000007F0000002060E0FF3F000000D7
:1014F80000000000000000FF13101010101810006A
:1015080000060602020202FF2A62C2C282820303A6
:1015180000000000000000FF60000000030700005A
:101528000000008F9E0000F87F01017FFFC1C0C04E
:10153800000101FFFF0783853CE404C4FC3E04006E
:101548000000001F9FC76160301F0F1F3970702097
:1015580000007F7F32323EBEF27E3E32327FFF8015
:1015680000010101FDF9696F6F6969FDFD01010164
:1015780000808080FFFF9B9B9B9B9BFFFF80E0C0C0
:101588000000C0FC5F03F8F01818FCFC0E0604000D
:10159800080E03FF0000FFFF04043FFF04040604D5
:1015A800000000FF00003F3F0C36F2030F3C707E46
:1015B8000000E0E0606060FFFF606060E0F0000055
:1015C8000000FFFF0C0C0CFFFF0C0C0CFFFF0000D1
:1015D800000007070101017FFFC1C1C1C3C3FEF8B5
:1015E800000000FF02020202FAF2020202020302F3
:1015F800000000FF00080808FFFF08E8CC8E08007C
:1016080000E03F47404040407F7F4040434F70707C
:10161800000000F0F0000000FFFE000000F8F000FD
:101628000000C0DF0F080808FFFF0808081FDF8058
:1016380000007FFF404040407F7F40404040FFFF28
:101648000000F87F2630303030FF3030FF32302055
:10165800084F43FEFE636604F427242427F4E606B5
:101668000000007F7F180800FF62626262FFFF00CF
:1016780000000202020202FEFE02020202038300CE
:10168800000202020202E2FF0FFE0202020303034B
:1016980080C06030180E0701007F606060607C7F4A
:1016A80000000000000706FEF880000000000000AF
:1016B8000000000000C0FC1F033FF8C0000000004D
:1016C80000C0703C0F030000000001071E7CF060A2
:1016D800000000FFFE060606060606060606FFFED2
:1016E800000000FFFF000000000000000000FFFFF6
:1016F800000000FFFF181818181818181818FF7F8E
:10170800000000840404040404040404FEFE000031
:10171800000000FF05040404040404041F0F000073
:10172800000000FFC0C0C0C0C0C0C0C0C0C0FFF043
:1017380000383F0F02FAD2C2C2C2C2C2C2FF870239
:0D174800000000003F1F1010101010901046
:10175500F8F8000000020202020202022223E3F36B
:101765007F03000000000080E0381F071C70E0C008
:1017750080000000182C2723A222FEFEA2A32333FB
:101785003307060060301C0F2362FF7F0001030E44
:101795003C3800007038F8FF9E98B81AE2427E4641
:1017A50042E2E30088C7E7BD9FFFF160FF00FFFE4F
:1017B50000FFFF01017F7F10103FB840733C0F050C
:1017C5000C3BF1000000FFFF313131313131317F08
:1017D50001E00000404043C7C646464646FEFE4679
:1017E50046676200000000000F0E303070FF7F007A
:1017F50000000040C0831EE8FCF84F49FC08F8BF14
:1018050083C0C00083C3FE1317F79E9ED79F7FF04A
:10181500FE3F0000017FFF703E0F18F87F301C0F60
:101825001F387000C0810F1EC00C0C0404FE060793
:10183500078380008087F73F01E1E121213F2121D6
:10184500F1E10100017F7F0000FF7F1010101010F3
:10185500FF7F00000000031E1C00040404040404B0
:10186500FEFC0000020202FF0200FCFC0C0C0C0C4A
:101875001F0F00000000307F1E077FFFC0C0C0C0E3
:10188500C0FFFF00FEFE04E464FE06FFFF02C07019
:101895003C1C0000FFFF80FF00FFF8FFFF1BF888DE
:1018A500080C0C8061391F03061E383FFF380D07F1
:1018B5001E38300000F8F810101010171E10101008
:1018C5001018180000FFFF000000000000000000D5
:1018D50000000080781F01000000000000000000EB
:1018E5000000000000F8F810101010171E1010105E
:1018F5001018180000FFFF000000000000000000A5
:1019050000000080781F01000000000000000000BA
:101915000000000000F8F810101010171E1010102D
:101925001018180000FFFF00000000000000000074
:1019350000000080781F010000000000000000008A
:101945000000000000F8F810101010171E101010FD
:101955001018180000FFFF00000000000000000044
:1019650000000080781F010000000000000000005A
:101975000000000000F8F810101010171E101010CD
:101985001018180000FFFF00000000000000000014
:1019950000000080781F010000000000000000002A
:1019A50000000000D0901010F0F818C0FF5F404014
:1019B50040E0E0000003CEFCFF811C0701FFFFE0D3
:1019C50002030020380E030083CF6E380F03000F8B
:1019D5007CF0C00000073E1C00F8F80C0EFEF0106D
:1019E50010F810020202FFFF00FFFFC040FFFF00DA
:1019F50000FF002070380F3F70E3C3C1C0FFDFC197
:101A0500C7C7C0000000E0FF0F10909090FFFF9047
:101A150090D818101C07FFFF00007F9010FF3F10A3
:101A25003F3F000000007F7F80C060331E1F306095
:101A350060E0C0000000FFFF838383FFFF83838393
:101A450083FFFF000000FF21202020FFFF20202032
:101A550020FFFF80703F07000000007F7F003030CF
:101A6500E0FF3F006060FFFF6060FCF80C0C0606BD
:101A7500078680207030FFFF0C06FF3F0111FFFF36
:101A8500C181010030707FFF701E07000000FF7FDD
:101A950000030700000000FEFE80808087FF808035
:101AA50080C08000000000FF3F31313131F1F90184
:101AB5000101010060381F070000000000FFFF0062
:0D1AC5000000000018181898F87F1FD8D8EE
:101AD200181818181C180000001C0F090808FF0825
:101AE20008080C0C88800003030303030303FF634D
:101AF2000303030303030000FE84FFFFC0FCF88C12
:101B0200EFF98888FC080000FF3030F000BFDF6882
:101B12003FFFE8089F80407F0F00007F030303031D
:101B220003FF7F03030300040404040404E4FC9C95
:101B3200040404040706000080C0703C0F03FF0188
:101B420002061C78E0C00006030000000000FF004F
:101B52000000000001030018080808080808080827
:101B6200080808080F0F0000000000000000000035
:101B72000000000000000000000000000000000063
:101B82000000000000000004C4741C0C64C687E05E
:101B9200FF2720E0303000636363FFFF61736F074C
:101BA2003FF0FC7F0000103030181F0F8C4C643463
:101BB2001C0F0F1C38700000F8F810101010171EC0
:101BC2001010101018180000FFFF000000000000A5
:101BD20000000000000080781F01000000000000EB
:101BE2000000000000000000F8F810101010171E8E
:101BF2001010101018180000FFFF00000000000075
:101C020000000000000080781F01000000000000BA
:101C12000000000000000000F8F810101010171E5D
:101C22001010101018180000FFFF00000000000044
:101C320000000000000080781F010000000000008A
:101C420000000000000000000000FF5A5A5A5A5AD1
:101C52005A5AFFFE0080000202FAFB4A4A4AFA4A36
:101C62004A4AFAFA03030080909797929292FF925F
:101C720092929F9BD0C0001818181898F87B3E18B3
:101C8200989818181C180000001C0ECFFD0C0CFCB4
:101C9200FC0F0F1E180000C040303C0F0300007FF5
:101CA2007F6060607F7E0000020202FEFE0202028E
:101CB200FEFE020303020004040404FFFF04040402
:101CC200FFFF0404070700C060301E070000000089
:101CD200FFFF00000000004040FF7F42E04080F82C
:101CE2003F071060C08000E0FF8780FE3F03F7E3FC
:101CF20023232321F32700C0301D0F070E0CFFFF03
:101D020010101010FF000000C07C1F82E060202035
:101D1200FFFF202030300087E7FADE476104E4C489
:101D2200474744E4E60400303918080C0404FF7FF6
:101D3200101010FF7F00000808C888888889FF8972
:101D42008888C8C80C0C000000FF7F30F0F0FFF05C
:101D5200F0307F7F0000404030180C0703E0FF00A6
:101D620003071C38381000C0F830101010111F1E65
:101D7200109090F078300010301111F1F11111F142
:101D8200F1111118181000804060381F0700007F01
:101D92007F606060787E0000F0F0202020202FFF1E
:101DA200A1212F2E30300000FFFF0C0CFCFC003F65
:101DB200FFC0F83F070000F03F03041C1F6F3018FC
:101DC2000F071F38707F0000073E1800FFFF43FF18
:101DD200C37F7F43FFFF020202FFFF4061387EE7BD
:101DE20005C4F47E0C002070380F1F3070F8CCCF81
:101DF200C7C3C0C0C0C00030F0FF97901800FE22D9
:101E02002222FE7F0280000E0F08FF8C8F41FF49C5
:101E1200494949FF010100070303FF050C0C0704B0
:101E22000404E4FF0606002020202020FFFE00FF1D
:101E3200FF202020302000000C0C0C0CFFFF00FFC4
:0D1E4200FF0C0C0C0C80000101010101FFE0
:101E4F007F007F7F01010101010000FEFE0606FEFB
:101E5F00FE0606FEFE0606FEFE0000FFFF00C0FFA8
:101E6F003F0000FFFF8080FFFF0000FFFF262320C1
:101E7F0020202021212121FFFF00000000FFFF0073
:101E8F000000FCFC000000FFFF00000080FF0300CB
:101E9F000000FFFF000000FFFF00C0781F030000DD
:101EAF0000000707000000FF7F0000F8F810101077
:101EBF0010171E1010101018180000FFFF00000060
:101ECF0000000000000000000080781F01000000EB
:101EDF0000000000000000000000303030FF303004
:101EEF000606FE068606FE000002F20202FF62628E
:101EFF000CFE0D0C0D0EFD0000380718203F2020A2
:101F0F0020272323232327200000000000FF8080A9
:101F1F004040300806000000000C0C0C0CFF0D1D9B
:101F2F006C8C0C0C0C0C0C0C0000000000FF20182B
:101F3F00040003041C381800000000F0F0202020DB
:101F4F00202FFFA1212F2E30300000FFFF0C0CFCA3
:101F5F00FC003FFFC0F83F070000F03F03041C1FC9
:101F6F006F30180F071F38707F00101010F0F0102F
:101F7F00989080FFFF8080C0C000000000FFFF80AE
:101F8F008040C0FF0F0000FF3F0006060383416142
:101F9F00381E071130E0F83F0000FEFC04F424FE69
:101FAF000480FE7F6360E0607000FFFFF0FF80FF42
:101FBF007C0707FEC0FF1F000040613C0F01038F2D
:101FCF005E60380E071F3870608080061E1CE07040
:101FDF00606060FF626060604000030FF63E1310A8
:101FEF001010F0FF10101018180103FFFF0060F021
:101FFF00FC6F636020263CF8F00000063C38404040
:10200F0040404040FFFF406060000404FEFE0001BE
:10201F000E3C3000FFFF00000000E0701F1F30601B
:10202F0060E0C4CCDFCFC0E0600010101090F0D0A3
:10203F00131F1E70D090901C1800100C07030DF882
:10204F00C000F87E0C030F0E000080C040603018F7
:10205F000F0F1F38307060E0600000031E1C00007F
:10206F00FFFE42424242FF0200020202FFFF808453
:10207F00858484FC848486E6C40000007F3F8EC381
:10208F0060381F030F3C70E04000000000FC8888A0
:10209F008F8B888888FC08000000000000FF4C4CE4
:1020AF00CC4C4C4C4CFF80000000E0F83C01FFFE94
:1020BF0080879E80E0F9073E78000080F0BF179080
:1020CF009090939F9C90D09818101C07FF000009C8
:1020DF00D98989898989CD8900000000FF00000016
:1020EF00FF10101010107F000000000000FFFE22F4
:1020FF002222222222FFFF000000000080E77F3F04
:10210F00FFF333B3F37733F0F000022331989CCE13
:10211F0063301C6F43C0F87F010000061C188088D5
:10212F008888FFFF88888CC8C0000303FF02001057
:10213F00726E0CF8FF020283800000103F188DC3EF
:10214F006171390F0F1971E101001010109090900B
:10215F00939F9E9090D0901818000000007F7F20D2
:10216F0020E02020207F0000000060301C0E27227E
:10217F00E07F0000030E3C380040C0831E9CC0C8A7
:10218F00C8C8FFFFC8C8FCC8E08081C7F80F6464E7
:10219F006464FFFF64647F600000013F3F0202023E
:1021AF000202FFFF020202030340C0830E1CC0782D
:0D21BF00F0F020233E2420F030000107C284
:1021CC00FC0700FFFF08080808081F1000017F7FAC
:1021DC0080603C0F01000000000000004080831E66
:1021EC00FC00C0F0BC8F87DCF0E0C0C00001C7FE73
:1021FC0007FFFD64FCFE00FCF800FF0101317F01CC
:10220C0000FFFF22FF7F000F6FE07F00006464245B
:10221C00B494FFBF80BFBFA4A6A7333C000080804E
:10222C00FFA4E4A4BFA4E4E4FFFFC0000004C44482
:10223C00643C1F1404040F1F3474E606000434E4D9
:10224C00F41ECEF0FC2FA7F43E2CF060000202FE30
:10225C00FF0E4767B7DE7FC3E23A1F000010307FE6
:10226C001F20321B2D6EE37F1F0F3C30000000043B
:10227C000404040404040404030000000000040427
:10228C000404C43C0C0444840404030200000070E5
:10229C006C23203010101011167C00000000011E61
:1022AC00000002020202C2221A0602000000020210
:1022BC00FF0000000000FF000000000000203008BC
:1022CC0007182064444CCFC0C0C0C020000000FFE1
:1022DC00020AF202FE02621A02FF0200000000274C
:1022EC0022222222FF222222221300000001C17985
:1022FC0001017901010971010519E101008006DC78
:10230C002040FC424040FC080808F8080001E61F89
:10231C008070FF040C10FF414141FF0000013F029F
:10232C000100077800007F1010107F0000F80C13DC
:10233C0010F8603C8888858A88E81C0000FF04043B
:10234C0004FF0808E81808F808080400000702024F
:10235C00422310080700001F20202638008040F080
:10236C0028262724F42C2624E020000000202023FB
:10237C00A5A5A5A5A7A5A5A5E72010100000000000
:10238C007F444444444444447F000000080B0B6FDA
:10239C006F6F6F0B0B150121020000B4B43C5F0C86
:1023AC000B0B0B0B0B0B0B0B0B0B0D13012102006F
:1023BC0000B4B4603C61620B0B0B0B0B0B0B0B13DF
:1023CC000121020000B4B4603C63640B0B0B0B0BDB
:1023DC000B0B0B130121020000B4B4603C65660BBF
:1023EC000B0B0B0B0B0B0B0A0B0B0B450B0B460BBD
:1023FC000B0B0A0B0B0B390B0B3A0B0B0B0A0B0BC6
:10240C000B480B0B490B0B0B0A0B0B0B400B0B3834
:10241C000B0B0B090B0B0B4035380B0B0B0A0B0B77
:10242C000B3E0B0B3F0B0B0B090B0B0B4A4B380BDF
:10243C000B0B080B0B323334350B0B070B474138A6
:10244C0034350B070B48493840350B090B0B0B6720
:10245C0068380B0B0B070B5758595A5B0B0A0B0BB5
:10246C000B550B0B380B0B0B0A0B0B0B6D0B0B6E75
:10247C000B0B0B070B5758595A5B0B080B0B3856A9
:10248C003E3F0B0B0F0000020031B5B60B0B0B0BD4
:10249C000B0B0B0B080B0B696A6B380B0B080B0B3C
:1024AC0079383E3F0B0B080B0B79383E3F0B0B0674
:1024BC0043444142777606434441427776070B3CCE
:1024CC00A33C3D3B0B080B0B3C3D733B0B0B080B30
:1024DC000B74783F750B0B080B0B48496F700B0B8B
:1024EC00080B0B484934710B0B080B0B47416F70F1
:1024FC000B0B080B0B474134710B0B070B69724725
:10250C0041380B070B47413834350B070B697248C0
:10251C0049380B070B48493834350B04016302006A
:10252C00040121020004014202010B0B0B7A000191
:0D253C00020304050B0B0C0B0B060700013E
:10254900020304050B0B080B0BA4446F700B0BBEA5
:10255900A9BDF2BBA6D3E5BCBDD4A5D4C6C1C9BA31
:10256900DACFE6CDEEC2B3D0C2CBD5D5E3B8D3B678
:10257900F5B9F0B8CABDFAC3C9C9C2BCAAC3F6B98C
:10258900F3D4C1C7E0B2D8B4A8C4FEC7EDBEFCBF3E
:10259900D5BAA3B1B1C9F2C0BCBCC3C4CFB9E3B306
:0125A900C968
:105F6200C007EF2409FBAC0AAD0BAE0CAF0D790AEA
:105F7200EC30E70A74FF6204620562066207125F90
:105F8200B0D00712609822C007EF2409FBAC0AAD1B
:105F92000BAE0CAF0D790AEC30E70A74FF620462B3
:105FA2000562066207125FB0D0071260B522EBC924
:105FB200FB7A047804E4D6C6C475F00A84C4C6C465
:105FC20045F0C475F00A84D6E5F008DAE9F719EC71
:105FD2004D4E4F6006DBDA22770B19DBFB22EFC353
:105FE200139295C0037B08EDC295C3339295D29567
:105FF200DBF6D003B29522C2957F0112547CD29572
:10600200C295C295D295C2957F07DFFEC295C29511
:106012007F07DFFED2957F007D00125FE07D1012C8
:106022005FE07D40125FE07DB0125FE07DA2125F13
:10603200E07DA1125FE07DC0125FE07DA6125FE00D
:106042007DA4125FE07D27125FE07D81125FE07D1B
:106052000F125FE07D2F125FE07DAF125FE07F01E4
:106062001260707F021260707F00126070228507DA
:0C607200047F0074B04CFD125FE07F0062
:10607E004410FD125FE07F007D00125FE07A607FCA
:10608E00017400FD125FE0DAF622850700764508FE
:10609E00764608850001097B05E7F60908DBFA76E6
:1060AE000A7D017B0C8031850700763F08767508E6
:1060BE00850001097B05E7F60908DBFA760A7D0102
:1060CE007B0C8014850700740093FB7901E993F62D
:1060DE000908DBF97D017B0C8507067C0085050030
:1060EE0018E86006EC2408FCD8FAEB600280030284
:1060FE006196A806E6FFBF3200400280177A08C3F9
:10610E00EF940075F018A42498F582E4E5F034239A
:10611E00F58380157A10C3EF943275F030A424D82D
:10612E00F582E4E5F03413F583780079007F00748E
:10613E00B048FD125FE07F00ECC4540F4410FD1216
:10614E005FE07F00EC540FFD125FE0BA10004013C9
:10615E00C0037B107F01E993FD125FE009DBF5D0F0
:10616E00038011C0037B087F01E993FD125FE009F4
:0B617E00DBF5D00308B80411BA1000D4
:1061890040051BEC2408FCEC2408FCDB032280A25C
:106199000E02610022EF30E023C0E07F0074B044BA
:1061A90008FD125FE07D10125FE07D04125FE07B65
:1061B9000A7F017DFF125FE0DBF7D0E030E11FC00D
:1061C900E07F0074B04408FD125FE07D13125FE0C8
:1061D9007D01125FE07F017DFF125FE0D0E030E2D8
:1061E9001FC0E07F0074B04408FD125FE07D141207
:1061F9005FE07D00125FE07F017DFF125FE0D0E08C
:1062090030E34DC0E074B04408FD125FE07D151223
:106219005FE07D0C125FE07F017DFF125FE0D0E05F
:10622900C0E07DFF20E4027D007F01125FE0D0E045
:10623900C0E07DFF20E6027D007F01125FE0D0E033
:10624900C0E07DFF20E5027D007F01125FE0D0E024
:1062590022C007C0059025368505070F1257B9D00A
:1062690005D007850500EBF6ED2403FDC005C00741
:106279008507007583018882E0F5F090255879003B
:106289007B29E99365F0702E08C083C0827583016C
:106299008882E0D082D083F5F009E99365F0601A2D
:1062A9000918C083C0827583018882E0D082D083B7
:0262B900F5F0FE
:1062BB00DBCE80040909DBC8D007D005EB701DC00D
:1062CB0007C0059025428505071F1F1257B9D0053A
:1062DB00D0077B088507018505008016F5F074292A
:1062EB00C395F0C3247A850500F6088507010909D3
:1062FB007B067583018982E0B44000500BB43000FB
:10630B004006C39430F68023B45B00500BB44100BD
:10631B004006C39433F68013B47B00500BB461007A
:10632B004006C39453F680037411F60809DBC322AD
:1075EC007FC1EF8B9904A768F3E6C548E36AE262B2
:1075FC0040108C272AC37A6E450AD3F6296FC9A985
:10760C00980C651A5FD163ACB3C7DD06B6EC16AE49
:10761C00AA052BCBB81CE93D751219C2F6CD0EF09C
:08762C00F006FFFFFFFF010261
:0600260002638C80FE2243
:10633B0022C0E0125FF9D0E0750A00750B00750CF6
:10634B0000F50D7F80125F6275940075930080F8E5
:10635B00222222222280FE222222222222222222D8
:10636B002222222222222222222222222222222202
:10637B0022222222222222222222222222222222F2
:10638B00222275A800438E8075B21075B101D2829E
:10639B00758902C28CD2B474D0F58A74D0F58CD2C4
:1063AB008C75A800D2ACD2AF758F010264A8308275
:1063BB00FD30825730825430825130824E30824BC6
:1063CB0030824830824530824230823F30823C30CE
:1063DB00823930823630823330823030822D3082B7
:1063EB002A30822730822430822430822430822447
:1063FB003082243082243082243082243082243034
:10640B0082243082243082243082240264A82082A9
:10641B00FA2082F72082F42082F12082EE2082EB98
:10642B002082E82082E52082E22082DF2082DC20AD
:10643B0082D92082D62082D32082D02082CD208286
:10644B00CA2082C72082C42082C12082BE2082BB88
:10645B002082B82082B520822320822020821D201A
:10646B00821A20821720821420821120820E208211
:0C647B000B208208208205208202808F06
:106487007F0FDFFE125510125510125510125510BE
:106497000000000000C28CD2B474DEF58AD28C8072
:1064A700002082030263B92082FD20825720825494
:1064B70020825120824E20824B2082482082452014
:1064C700824220823F20823C2082392082362082ED
:1064D7003320823020822D20822A20822720822486
:1064E70020822320822320822320822320822320AC
:1064F700822320822320822320822320822320823A
:1065070023208223809B3082FB3082F83082F53053
:1065170082F23082EF3082EC3082E93082E63082DC
:10652700E33082E03082DD3082DA3082D73082D4C5
:106537003082D13082CE3082CB3082C83082C530B3
:1065470082C23082BF3082BC3082B93082B630829C
:106557002330822030821D30821A30821730821415
:1065670030821130820E30820B3082083082053043
:10657700820280907F0FDFFE1255101255101255C0
:10658700101255100000000000C28CD2B474DEF562
:106597008AD28C0264A822D2A3D207D206C2057F70
:1065A70000126DF8EF600302664B8505078505004D
:1065B70005000500050005007583018882E0FA08DB
:1065C7007583018882E0C002C0E0126E9FD0E0D0E0
:1065D70002CAC002C0E0EA64036005123F94800368
:1065E700123F597F011237957F011236E7D0E0A29B
:0365F700E0920F20
:1065FA00123DB4126D3AC298C299C289C28BC28D39
:10660A00C28FC28CC28E75A800D29CD2ACC28CD268
:10661A00AFD002EAB400028072B401028069B40207
:10662A0002804FB40311D2827F007F011236AC7F01
:10663A0000123F2C02638DB404028015C2C5020009
:10664A0034126D3AD2AFD2ACC289D2AAD28A02002F
:10665A00B5123827C298C299C289C28BC28DC28F1D
:10666A00C28CC28EC282D2A8D288D2ACD2AFD28217
:10667A0080FE000000000000000000000000000092
:10668A00000000B28280EBD28280FE78269075EC00
:10669A007B407900E993F60809DBF978267D407F8B
:1066AA000780120000E6087F08800A00007E02DEEA
:1066BA00FE00000000B28213400E7E03DEFE7C0064
:1066CA00B282DFE7DDDD80D30CBC05177C007E07D4
:1066DA00DEFE00B2827E04DEFE0000B282DFCCDD86
:1066EA00C280B87E02DEFE000000DFBFDDB580ABEF
:1059D300EFC0E0E4441044044441F58ED0E0538921
:1059E3000F438920F59C3005057598C08003759891
:1059F30040758780C298C29922C000C0E07808E64B
:105A0300C3940C0000FFD0E0D000DFFE3000067F1F
:105A1300630000DFFE22C000C0E07809E6C3940BF8
:105A23000000FFD0E0D000DFFE3000067FC700009B
:105A3300DFFE22C000C0E07809E6C3940C0000FF3B
:105A4300D0E0D000DFFE3000067FC70000DFFE227B
:105A5300C000C0E07809E6C3940E0000FFD0E0D098
:105A630000DFFE3000067FC70000DFFE22C000C05B
:105A7300E07809E6C394100000FFD0E0D000DFFE19
:105A83003000067FC70000DFFE2222EF125A3630B5
:105A93000506A2D0790980087908000000000000FB
:105AA30013125A19D9FA000000125A7022C2B0EF29
:105AB3001254B4300506A2D0790980087908000091
:0C5AC300000000001392B01254ACD9F89F
:105ACF00000000D2B01254AC22850700EDFF125433
:105ADF0099200703E680097583018882E0000000A2
:105AEF00FF125AB008DBE57F00222083057F0102F9
:105AFF005B9A30062C300C1AC20C788B7583018898
:105B0F0082E0F879FF7AFF30831ADAFBD9F9D8F7F8
:105B1F00800B787079FF30830BD9FBD8F97F028027
:105B2F006A2083FD1254E600003083057F03008056
:105B3F005A748000001254C500A2831350F7300529
:105B4F00321254CB0000A28320D00792D020D00B6A
:105B5F00800D92D00000000020D0047F01802C1215
:105B6F0054E420832412550620831E1255062083E9
:105B7F001880121254DC20831012550620830A124B
:105B8F0055062083047F0180027F00FD22D20CD2B4
:105B9F0009EF788C7583018882F0850700EB60052B
:105BAF002814FBC209C000125AF9D000D206FAEF2E
:105BBF006400703F798C7583018982E0850007CF7F
:105BCF00C39FB47F00501DEA200703F68009758339
:105BDF00018882F0000000EB20090668700308803E
:025BEF0012089A
:105BF10080C17F047B80788C7583018882E024805A
:105C0100F8798C7583018982E0C3C898FB2232C27E
:105C11009C850700EB602AC299200703E680067580
:105C210083018882E07A64DAFE300504A2D0929A78
:105C3100F599081B3099FDC0077F0ADFFED0078068
:105C4100D3D29C22539AEF850700EB602D539AFD26
:105C5100200703E680067583018882E07A64DAFE14
:105C610030050CA2D0C0E0E59A92E2F59AD0E0F5B9
:105C71009B081BE59A30E1FB80D0439A1022D20C9D
:105C8100D29CC298850700EB60032814FB30062ED6
:105C9100300C1EC20CC000788B7583018882E0D065
:105CA10000FC7A7F7DFF20981ADDFBDAF9DCF780B2
:105CB100317C157AFF20980BDAFBDCF980243098CF
:105CC100FDD206C298E599200703F6800975830184
:105CD1008882F0000000EB6006687003088003080A
:105CE10080ABE8C39FFBC29CC29822D29CC2987829
:105CF1008B7583018882E0FC7AFF7DFF20980ADDA5
:0B5D0100FBDAF9DCF77F02800BC29890
:105D0C00E599FD7F00C29CC29822D20C439A105395
:105D1C009AFE850700EB60032814FB300632300C2A
:105D2C0020C20CC000788B7583018882E0D000FC07
:105D3C007AFF7DFFE59A20E025DDF9DAF7DCF580C6
:105D4C003D7C157AFFE59A20E014DAF9DCF7802E19
:105D5C00E59A30E0FBD206C28CC2A9751F01539A9A
:105D6C00FEE59B200703F680097583018882F0000D
:105D7C000000EB600668700308800308809DE8C390
:105D8C009FFB539AEF539AFE22E422850700EDFF06
:105D9C00125499200703E680097583018882E0007C
:105DAC000000FF125DBA08DBE57F00800022EF12D5
:105DBC0054A0300507A2D07909025AC7790800000F
:105DCC0000000000131254A0000000000000D9F4E1
:105DDC000000001254A022D20CD29CC2988507005D
:105DEC00EB60032814FB30062F300C1FC20CC000D4
:105DFC00788B7583018882E0D0007C2A7AFF7DFF46
:105E0C0020981ADDFBDAF9DCF780317C157AFF205B
:025E1C00980BE1
:105E1E00DAFBDCF980243098FDD206C298E5992091
:105E2E000703F680097583018882F0000000EB609D
:105E3E00066870030880030880AAE8C39FFBC29C13
:105E4E00C29822D20CEF788C7583018882F0850778
:105E5E0000EB60032814FBC000125EBFD000D20618
:105E6E00FAEF6400703E798C7583018982E08500BB
:105E7E0007CFC39FB47F00501CEA200703F68009AA
:105E8E007583018882F0000000EB600668700308DD
:105E9E0080120880C27F047B80788C758301888293
:105EAE00E02480F8798C7583018982E0C3C898FB61
:105EBE00222083057F01025F6030062C300C1AC24F
:105ECE000C788B7583018882E0F879FF7AFF308336
:105EDE001ADAFBD9F9D8F7800B780379FF30830BE8
:105EEE00D9FBD8F97F02806A2083FD1254E60000A8
:105EFE003083057F0300805A748000001254C50061
:105F0E00A2831350F73005321254CB0000A2832027
:0E5F1E00D00792D020D00B800D92D000000052
:105F2C000020D0047F01802C1254E42083241255CD
:105F3C000620831E12550620831880121254DC2072
:105F4C00831012550620830A1255062083047F0104
:065F5C0080027F00FD221F
:106F3400C0077F00740923D2E7126A93D007227F27
:106F440000740A23D2E7126A932285070075162972
:106F5400C000126BBAD000EF64FF700302700FEF31
:106F64006403703C126F3464FA7025126F34126F2C
:106F7400347409237FFA126A937409237F01126A15
:106F8400937409237F32126A937F0C126B9580BD30
:106F9400EF1414FBBB7F0040028070126F34801129
:106FA400EF1414FBBB7F0040028060126F34126F39
:106FB40034850304C004C003126F347F0ADFFE204B
:106FC4000703F680067583018882F008DBEAD003A4
:106FD400D004740A23D2E77F00126A93600CFB2C5E
:106FE400FCBC7F004002802380CA850403C00312D6
:106FF4007014D003201213E8C39CF87461758301E4
:107004008882F008EC8882F07B02227FFF7B0022DA
:10701400740C23D2E77F00126A93D2E7FF740C2327
:10702400126A93740A237F80126A937401237F0087
:10703400126A9322C007FF740923126A93D00722AD
:10704400740AA21F92E0127038B21F7401127038D1
:03705400BB360048
:1070570050047C008008C3E5039435FC7B35850725
:1070670000200703E680067583018882E0127038E6
:1070770008DBEE7516297F0C126CF3EC7002802882
:107087007F00740A23D2E7126A93B41E0050F18579
:1070970004037F12DFFE200703E68006758301885D
:1070A70082E012703808DBEA227409237FE0126A53
:1070B700937409237F71126A93C207D2117516233D
:1070C7007D267F0C126B95BFFF037FFF22EF60FACF
:1070D700750126126F34F70501DFF8227409237F43
:1070E700D1126A937409237F11126A937409237F5B
:1070F7000A126A93C207D2117516237D267F0C12D6
:107107006B95BFFF037FFF22EF60FA750126126FB1
:1071170034F70501DFF822C207C005C00312704427
:0D712700D003D005D207850507126F4E2258
:106A5F007400227585DCE4F585D286D287D2C6D242
:106A6F00C1D2847F0112547CC2847F0112547CD224
:106A7F00847F021258297401237F0F126A937F01BA
:106A8F0012582922801BC2860000F586E58430E764
:106A9F00FB7584C08F86E58430E7FB7584C0D28692
:106AAF0022C003C28600007B08C2873392C6D287FA
:106ABF0000DBF600000000000000000000000000F6
:106ACF0000000000EF7B08C2873392C60000D28718
:106ADF00A2C1DBF333F5F0D286D003227412237FE9
:106AEF00A0126A937413237FA0126A937424237FD6
:106AFF0009126A937F00227411237F3D126A9374E7
:106B0F0015237F40126A93742A237F8D126A937420
:106B1F002B237F01126A93742D237F96126A93742D
:106B2F002C237F01126A93740D237F07126A9374CB
:106B3F0014237F81126A937F051258292274092327
:106B4F007F52126A9374237816F6C207C2117D26FC
:106B5F007F0CC0077404237F7F126A93D0077401E0
:106B6F0023126A93740D23D2E77F00126A93D2E740
:106B7F00FF740D23126A9330B3047E0480027E9655
:106B8F007FFF126BBC22C0077404237F7F126A93AE
:106B9F00D007740123126A93740D23D2E77F00127A
:106BAF006A93D2E7FF740D23126A937E960000005A
:106BBF000000DF05DE03026C52740423D2E7C00726
:106BCF007F00126A93D007E51655F060E0E5F030CC
:106BDF00E002806F740623D2E77F00126A93541B82
:106BEF007061740A23D2E77F00126A93301102FF9B
:106BFF0022602A850501FD740923D2E77F00126AFE
:106C0F0093B900028015200703F7800EC083C0825E
:106C1F007583018982F0D082D08309DDDA740C2369
:106C2F00D2E77F00126A93D2E7FF740C23126A93A4
:106C3F00740A237F80126A937401237F00126A9370
:106C4F007F00227FFFC28422740D237F00126A937C
:106C5F007409237F93126A937409237F20126A9316
:106C6F0074237816F6C207C2117D177F0C126B952D
:106C7F00BF000D78177D05E46608DDFC60027FFF1D
:016C8F0022E2
:106C9000742B237F3E126A93742D237FFA126A931A
:106CA000742C237F02126A937409237F93126A93D0
:106CB0007409237F70126A9378177A047E00E6FFC6
:106CC0006206740923126A9308DAF3EEFF7409234B
:106CD000126A937412237F80126A937413237F8045
:106CE000126A9378167633C207C2117D267F0C1282
:106CF0006B9522C0077404237F7F126A93D00774B8
:106D00000123126A93740D23D2E77F00126A93D293
:096D1000E7FF740D23126A9322BF
:10766800227FFF22222222222274FF85050074FF36
:107678007583018882F0087583018882F07583011B
:097688008882F07B0280012222BD
:10540E007F092212541812544222900033935403EF
:10541E007582127583012583F5837835E6F5F0786C
:10542E00927583018882E004F21465F02582F5827C
:10543E0093540322B400047F008024B401047F033C
:10544E00801DB402047F068016900033935401F53C
:10545E00F078927583018882E0540125F080D5EFB3
:10546E00FB600A7D187EFFDEFEDDFADFF622C00647
:10547E00C0057E0F7DFF0000000000000000000050
:10548E00DDF4DEF2DFECD005D0062200DFFD22DFF8
:10549E00FE227F4EDFFEDFFE7FFE0000DFFE0000FD
:1054AE000000000000007F01DFFE007F0FDFFE0026
:1054BE0000000000000000000000000000000000DE
:1054CE000000000000007F09DFFE00000000000069
:1054DE0000000000000000000000000000000000BE
:1054EE0000000000000000000000000000000000AE
:1054FE00000000000000000000000000000000009E
:10550E00000022EFF8EDFA7EFF7FFF905575EF66F3
:10551E00C33350020583FC04936EFFEC93FE08DA4E
:10552E00EAEFF4F608EEF4F622EFF8EDFA7EFF7FDE
:10553E00FF905575C083C0827583018882E0D0824A
:10554E00D0836FC33350020583FC04936EFFEC933C
:10555E00FE08DADDEFF47583018882F008EEF4F2CE
:10556E007583018882F022000011892312329B4636
:10557E002457AD653674BF8C489DC1AF5ABED3CA91
:10558E006CDBE5E97EF8F7108101083393221A5699
:10559E00A5472C75B7643E9CC98D40BFDBAE52DA71
:1055AE00EDCB64F9FFE8762102308B021013996778
:1055BE002676AF443455BDAD4ABCC38E589FD1EB51
:1055CE006EFAE7C87CD9F53183200A129103187759
:1055DE00A7662E54B5453CBDCBAC429ED98F50FB31
:1055EE00EFEA66D8FDC9744204538D6116709F04AC
:1055FE002015A9273236BBCE4CDFC5ED5EFCD78811
:10560E006899E1AB7ABAF35285430C7197601E1418
:10561E00A1052837B3263ADECDCF44FDDFEC5698F0
:10562E00E98960BBFBAA726306728F4014519D25F7
:10563E002234AB063017B9EF4EFEC7CC5CDDD5A9D0
:10564E006AB8E38A789BF17387620E5095411C35D8
:10565E00A3242A16B10738FFCFEE46DCDDCD54B9B0
:10566E00EBA8629AF98B7084089581A71AB693C23B
:10567E002CD3A5E13EF0B7084019C92B523ADB4EA8
:10568E00645FED6D767CFF94898500B79BA612D280
:10569E00ADC324F1BFE03618C109483BD32A5A5E88
:1056AE00E54F6C7DF76C7EA50AB48386189791E35F
:1056BE002EF2A7C03CD1B5294238CB0A501BD96F68
:1056CE00667EEF4C745DFDB58BA40296998710F340
:1056DE00AFE226D0BDC13439C3284A1AD10B587F48
:1056EE00E76E6E5CF54D7CC60CD785E51EF4978093
:1056FE002891A1A33AB2B34A445BCD695678DF0C28
:10570E00601DE92F723EFBD68DC704F59FE41690FF
:10571E00A98120B3BBA2325AC54B4C79D7685E1C07
:10572E00E10D683FF32E7AE70EF687C41CD595A1DE
:10573E002AB0A3823893B16B467ACF485459DD2DE7
:10574E00623CEB0E701FF9F78FE606D49DC514B1BF
:10575E00ABA02292B983307BC76A4E58D5495C3DC7
:10576E00E32C6A1EF10F788503028507008505017B
:10577E00E77583018882F00809DAF5228503028530
:10578E0007008505017583018882E0F70809DAF5BF
:10579E00228503028507008505017583018882E055
:1057AE007583018982F00809DAF0228507007400FA
:0657BE0093FAFB7901E9FA
:1057C40093F60908DAF9228507007901E993F609C5
:1057D40008DBF922850700740093FAFB7901E99349
:1057E400C083C0827583018882F0D082D083090887
:1057F400DAEC227900E993C083C082758301888240
:10580400F0D082D0830908DBEC22D295C2957E07C2
:105814007D14DDFEDDFEDDFEDDFEB295B295DEF02B
:10582400DFECD2C522C0E0EEC0E0741C7EFFDEFED9
:10583400D5E0F9DFF5D0E0FED0E02285070178ADB0
:105844007583018982E07583018882F00908758374
:10585400018982E07583018882F0090875830189D2
:1058640082E07583018882F009087583018982E0EA
:105874007583018882F00D0D0D850501850302C035
:1058840000C37B047583018882E0F5F0E795F07529
:1058940083018882F01819DBEBD00050028024C306
:1058A4007583018882E09A187583018882E09400E8
:1058B400187583018882E09400187583018882E05A
:0358C4009400222B
:1058C70085070178AD7583018982E0758301888238
:1058D700F009087583018982E07583018882F009E0
:1058E700087583018982E07583018882F00908754C
:1058F70083018982E07583018882F0850501C000F4
:10590700C37B04E7F5F07583018882E095F0758322
:10591700018882F01819DBEBD00080808507007EB4
:1059270000200703E680067583018882E06EFE0883
:10593700DBEF227583727582F77B0312733E228534
:105947000700C308087583018882E0F5F074013504
:10595700F07583018882F0187583018882E0F5F07D
:10596700740035F07583018882F0C3087583018858
:1059770082E075F0E895F0187583018882E075F08C
:105987000395F0401D187583018882E00475830133
:105997008882F0E4087583018882F008758301889E
:1059A70082F0227F6412580E7F6412580E7F6412B1
:1059B700580E7F6412580E7F6412580E7F64125877
:0C59C7000E7F809024871260D280FE22A8
:10757D004256565950E43AEC2000F009603B003178
:10758D003F0F0C3830D7F20230303D020000009E24
:10759D00000000001F500498FF010000041430414A
:1075AD001080014020000280CD4C5555FD93220FD7
:1075BD00000404888462C168387EBEE7DFFF411095
:1075CD0004C1FFFFFF1F04010C411004C1FFFFFFA9
:0F75DD001F04010CC3300CC3FFFFFF3F0C030C56
:1032EE007F011236E720B535DFFEDFFEDFFEDFFEA3
:1032FE00DFFEDFFEDFFEDFFEDFFEDFFEDFFEDFFED8
:10330E00DFFEDFFEDFFEDFFEDFFEDFFEDFFEDFFEC7
:10331E00DFFE20B5087F001236E7020034789CC32A
:10332E007583018882E0F5F0740135F08882F0181B
:10333E008882E0F5F0740035F08882F0B404004025
:10334E00087F001236E70200347FFFDFFEDFFEDF6C
:10335E00FEDFFEDFFEDFFE12338F7F001236E77DCB
:10336E000F7E047FADD20712361878AD75830188B3
:10337E0082E044028882F07D0F7E047FAD12368299
:10338E0022C282758301758200E50EFB7A10000061
:10339E000000B282BA020040051254FDDAF0125457
:1033AE00FB7A2200000000B282BA02004007000041
:1033BE00000000DAEE00000012345F007C007A0894
:1033CE00E013502C00000000B2820CBC0505125414
:1033DE00FD801D000000000000BA020040031255DF
:1033EE000EDADEA30000DBD600000012345F804050
:0333FE00000000CC
:1034010000B2827C00BA02004017000000000000F8
:103411000000000000B2820000000000000000DA9D
:10342100AD00000000A3000000000000B282000017
:1034310000DB9800000012345F0000000000000073
:103441000000007A0800000000B282BA02004007C2
:103451000000000000DAEE00000000C2822200003D
:103461000000B28212550A00000000B28212550C0F
:103471007A0600000000B282BA020040051254FD33
:10348100DAF01254F900000000B28212550A00006D
:103491000000B282222092247D0F7E047FADD207EC
:1034A10012361878B07583018882E0440F75830164
:1034B1008882F07D0F7E047FAD1236827D0F7E04FF
:1034C1007FADD20712361878AD7583018882E0444A
:1034D100028882F07D0F7E047FAD1236822092FD3C
:0834E1007D067E047FADD207D9
:1034E90012361878AD7583018882E0A2E24004A201
:1034F900E140237D0F7E047FADD20712361878B0E4
:103509007583018882E0440F8882F07D0F7E047FF5
:10351900AD12368280BF7D0F7E047FADD207123691
:103529001878AD7583018882E054FD8882F07D0F9B
:103539007E047FAD1236827D057E047FADD20712EF
:10354900361878AD8882E070217D0F7E047FADD278
:103559000712361878B08882E0440F8882F07D0F10
:103569007E047FAD1236820234DE14146085B48184
:103579000040030234FC780FF6D285D2837D10789F
:10358900AD8882E0FEC2077F26C006123618D00633
:103599007D0F7E047FADD20712361878B08882E09D
:1035A900440F8882F07D0F7E047FAD123682780F3A
:1035B900E6F50322C2C2D290123BDA123BE122C2E3
:1035C90090C0077F08339281D2C2A280C2C2DFF5C0
:1035D900C28133D00722D2C2A280C2C233D2C2A2D0
:1035E90080C2C233D2C2A280C2C233D2C2A280C2B6
:1035F900C233D2C2A280C2C233D2C2A280C2C233F3
:04360900D2C2A28007
:10360D00C2C233D2C2A280C2C23322C2907A01DAC0
:10361D00FEED123647EFF874001235DF200703F682
:10362D00800EC083C0827583018882F0D082D083E2
:10363D0008DEE47A01DAFED29022339281D2C2C240
:10364D00C2339281D2C2C2C2339281D2C2C2C233BC
:10365D009281D2C2C2C2339281D2C2C2C23392818E
:10366D00D2C2C2C2339281D2C2C2C2339281D2C2FD
:10367D00C2C2C28122C2907A01DAFEED4420123616
:10368D0047FDEFF8C083C0827583018882E0D08248
:10369D00D08312364708DEEC7A01DAFED29022C2D0
:1036AD00907A0ADAFE740F442012364790757DEF3A
:1036BD007007743C9354FD8005743C93440212369C
:1036CD0047743D93123647743E93123647743F93B9
:1036DD001236477A0ADAFED29022C2907A0ADAFEC0
:1036ED007404442012364790757DEF602374139354
:1036FD00123647741293123647741193123647746B
:10370D00109354FD54FE1236477A0ADAFED29022F7
:08371D00741393123647741275
:10372500931236477411931236477410934402442A
:10373500011236477A0ADAFED29022C2907A0ADA64
:10374500FE7404442012364790757DEF7021741382
:1037550093123647741293123647741193123647F3
:1037650074109354FE1236477A0ADAFED290227408
:103775001393123647741293123647741193123607
:103785004774109344011236477A0ADAFED2902222
:10379500C2907A0ADAFE7409442012364790757D84
:1037A500EF700774249354FE80057424934401122A
:1037B5003647742593123647742693123647742775
:1037C500931236477A0ADAFED29022C290740444E4
:1037D500201235C890757D7413931235C8741293F1
:1037E5001235C87411931235C8EF600B74109354D9
:1037F5007F1235C8D2902274109344801235C8D2F6
:1038050090227F001236AC7AC8DAFE7A64DAFE7F3F
:10381500001236E77AC8DAFE7A64DAFE7F011237DB
:1038250095227F001236AC7F001236E77D097E04B3
:103835007FADD20712361878AE7583018882E044D1
:0D384500047583018882F07D097E047FAD4B
:1038520012368278AE7583018882E054FB7583014B
:103862008882F07D097E047FAD1236827F00123796
:1038720095C282227F001236E77AC8DAFE7A64DACB
:10388200FE7F011237957AC8DAFE7A64DAFE7F018A
:103892001236AC227F011237957AC8DAFE7A64DAE0
:1038A200FE7F011236E7227F001236AC7AC8DAFEBA
:1038B2007A64DAFE7F001236E77AC8DAFE7A64DAD0
:1038C200FE7F001237957AC8DAFE7A64DAFE7F014B
:1038D2001237D0227F001236AC7AC8DAFE7A64DA66
:1038E200FE7F001237957AC8DAFE7A64DAFE7F002C
:1038F2001236E77AC8DAFE7A64DAFE7F001237D02F
:1039020022C290740F44201235C890757DEF700763
:10391200743C9354FE8005743C9344011235C87480
:103922003D931235C8743E931235C8743F931235D5
:10393200C8D290227F001239037F011239467F01DB
:10394200123903227D187EFFDEFEDDFADFF622C287
:10395200C2C281D2907AC8DAFE90757D7F007E095C
:103962007D007AC8DAFE7A64DAFEC290ED44201253
:10397200364774032F9312364774022F9312364739
:0439820074012F930A
:1039860012364774002F931236477A0ADAFED2901F
:1039960074042FFF0DDEC77F247E077D097AC8DAFF
:1039A600FE7A64DAFEC2907A0ADAFEED4420123616
:1039B6004774002F9312364774012F9312364774BB
:1039C600022F9312364774032F931236477A0ADA78
:1039D600FED29074042FFF0DDEC37AC8DAFE7A6435
:1039E600DAFEC2907A0ADAFE9075BD74114420128E
:1039F60036477E0E7A00EA931236470ADEF87A0ACE
:103A0600DAFED2907AC8DAFE7A64DAFEC2907A0AD0
:103A1600DAFE9075CB741244201236477E0B7A007C
:103A2600EA931236470ADEF87A0ADAFED290123A9A
:103A3600E27F0612394690757D782B741F93F6083F
:103A4600741E93F608741D93F608741C93F67D078E
:103A56007E047F26C2071236187826E6B40A00507E
:103A660007782BE6547F8003782BE64440F6123B1A
:103A76004F123AE27F061239467D077E047F26C240
:103A8600071236187826E6B40A005007782BE65453
:093A9600BF8003782BE64420F602
:103A9F00123B4F123AE27F061239467D077E047FB2
:103AAF0026C2071236187826E6B40A005007782B7C
:103ABF00E654DF8003782BE6F6123B4F123AE27F93
:103ACF00061239467D077E047F26C2071236187804
:103ADF0026E6227AF0DAFE7A82DAFE90757DC290BF
:103AEF007A0ADAFE740F44201235C8743C931235EB
:103AFF00C8743D931235C8743E931235C8743F9302
:103B0F0044101235C87A0ADAFED2907F0412394671
:103B1F007AF0DAFE7A82DAFE740F44201235C87416
:103B2F003C931235C8743D931235C8743E931235C9
:103B3F00C8743F9354EF1235C87A0ADAFED2902236
:103B4F00740744201235C8782BE61235C808E612E0
:103B5F0035C808E61235C808E61235C8D290227A61
:103B6F00C8DAFE7A64DAFE90757D740F4420123540
:103B7F00C8743C931235C8743D931235C8743E9384
:103B8F001235C8743F9344101235C87A0ADAFED240
:103B9F00907F141239467AC8DAFE7A64DAFE740F0F
:103BAF0044201235C8743C931235C8743D931235B6
:103BBF00C8743E931235C8743F9354EF1235C87AC8
:033BCF000ADAFE11
:103BD200D2907F141239462212393612395122906C
:103BE200757D78AD741493C083C082758301888219
:103BF200F0D082D08308741593C083C0827583018C
:103C02008882F0D082D08308741693C083C08275F4
:103C120083018882F0D082D08308741793C083C056
:103C2200827583018882F0D082D083C2907A0ADAC8
:103C3200FE7405442012364778B07583018882E00D
:103C4200440412364778AF8882E012364778AE884D
:103C520082E012364778AD8882E01236477A0ADA75
:103C6200FED2907AC8DAFE7A64DAFEC2907A0ADA72
:103C7200FE7405442012364778B08882E054FB1265
:103C8200364778AF8882E012364778AE8882E012F3
:103C9200364778AD8882E01236477A0ADAFED29049
:103CA2007AC8DAFE7A64DAFE222092217D0F7E043F
:103CB2007FADD20712361878B07583018882E0444E
:103CC2000F8882F07D0F7E047FAD1236827D0F7EDB
:103CD200047FADD20712361878AD7583018882E071
:103CE20044028882F07D0F7E047FAD123682D2AF0D
:0D3CF2002092FDC2AF7D067E047FADD2079B
:103CFF0012361878AD7583018882E0A2E24004A2E3
:103D0F00E140237D0F7E047FADD20712361878B0C5
:103D1F007583018882E0440F8882F07D0F7E047FD7
:103D2F00AD12368280BB7D0F7E047FADD207123677
:103D3F001878AD7583018882E054FD8882F07D0F7D
:103D4F007E047FAD1236827D057E047FADD20712D1
:103D5F00361878AD8882E070217D0F7E047FADD25A
:103D6F000712361878B08882E0440F8882F07D0FF2
:103D7F007E047FAD123682023CF014146085B4814C
:103D8F00004003023D12780FF67D1078AD75830168
:103D9F008882E0FEC2077F26C006123618D006784A
:103DAF000FE6F50322200F30C2907A01DAFE74017C
:103DBF00442012364774EC123647743A1236477461
:103DCF00E412364774501236477A01DAFED2907AEF
:103DDF0001DAFE7A01DAFE22C2907A01DAFE74016C
:103DEF00442012364774EC123647743A1236477431
:103DFF00FE12364774401236477A01DAFED2907AB5
:103E0F0001DAFE7A01DAFE221239367F001236AC61
:103E1F00227D097E047FADD20712361878AD7583E7
:073E2F00018882E0A2E022FD
:103E36009075B57A06C002EA2408FD7E047FADD2ED
:103E4600071236187FB17B041257F778AD79B17B2C
:103E560004C083C0827583018882E0F5F08982E020
:103E6600D082D08365F06005D002023EFC0809DBF3
:103E7600E0C37404F5F0E58295F0F582E4F5F0E52B
:103E86008395F0F583D002DAAC7D117E0E7FADD23C
:103E9600071236189075BD7FBB7B0E1257F778ADAB
:103EA60079BB7B0E7583018882E0F5F07583018905
:103EB60082E065F06004D003803C0809DBE67D12F1
:103EC6007E0B7FADD2071236189075CB7FB87B0B71
:103ED6001257F778AD79B87B0B7583018882E0F5C8
:103EE600F07583018982E065F06004D003800708DD
:103EF60009DBE67F00227FFF22C0077D047E047F68
:103F0600ADD20712361878B07583018882E0D007E3
:103F1600EF700454FE800244018882F07D047E0422
:103F26007FAD12368222C0077D0F7E047FADD20799
:103F360012361878AE7583018882E0D007BF000478
:103F4600547F800244808882F07D0F7E047FAD120C
:093F5600368222C2907A0ADAFEDA
:103F5F00D2907AC8DAFE7A64DAFEC2907A0ADAFE72
:103F6F009075D6741244201236477E0B7A00EA936E
:103F7F001236470ADEF87A0ADAFED2907AC8DAFEEB
:103F8F007A64DAFE227AC8DAFE7A64DAFEC2907AAE
:103F9F000ADAFE9075E1741244201236477E0B7ACE
:103FAF0000EA931236470ADEF87A0ADAFED2907ADE
:083FBF00C8DAFE7A64DAFE2282
:10742D001502FD00110100A3DBA3D6A3B1A3B5A3E3
:10743D00DDBFAABBFACE1502FD00110100A3DBA32F
:10744D00D6A3B1A3B5A3DDB9D8BBFABA1806FD0012
:10745D001401015B7631355DBFAACABCC2B7BEB699
:10746D00BCC7C2BC861605FD001201015B76313525
:10747D005DC2B7BEB6BCC7C2BCD6D0E51806FD000E
:10748D001401015B7631355DBDE1CAF8C2B7BEB6F8
:10749D00BCC7C2BC8B1806FD001401015B763135EB
:1074AD005DC4E3D2D1BDF8C8EBB8DFCBD9AA1605C0
:1074BD00FD001201015B7631355DC4E3D2D1CFC23F
:1074CD00B8DFCBD9C71806FD001401015B76313545
:1074DD005DB5E7C1BFB5CDC7EBB3E4B5E7E00F557B
:0E74ED00AA000008F111223344556677887119
:103FC700200A03024121D212C20D7F267D007BDF2A
:103FD7007A01124BEBD212C20D7F267D007BEF7A5E
:103FE70007124BEBC20DD2127F267DAD7C007B0002
:103FF7007A05124C7BEF6003024121C20DD2127F7A
:10400700267DB27C007B6D7A04124C7BEF60030245
:104017004121D212D20D7F267D007B107A01124BEF
:10402700EBD212D20D7F267D007B007A09124BEB73
:10403700D20DD2127F267DB67C007B007A05124C0A
:104047007BEF6003024121D20DD2127F267DBB7C1C
:10405700007B6D7A04124C7BEF600302412178B834
:104067007583018882E064007003024112D212C294
:104077000D782B7B34E4F608DBFC78CB7471758301
:10408700018882F0E4187583018882F07E0478CA7B
:104097007583018882E0FC78CB7583018882E0FB19
:1040A7007A347F267D00C006124BC1D006EF706AB6
:1040B70078CB7583018882E0C334347583018882A5
:1040C700F0187583018882E034007583018882F0D7
:1040D700DEBCD212C20D782B7400F608F608F6087B
:0340E700F608F6E2
:1040EA007C007B007A057F267D00124BC1EF70278A
:1040FA00D212D20D782B7400F67C007B017A017FF4
:10410A00267D00124BC1800F7DB27FBB12416950E0
:10411A00031242791245D7228505008507017B04DF
:10412A007583018882E0F5F07583018982E065F084
:10413A0070070809DBEAD380258505008507010990
:10414A000809080908C37B047583018982E0F5F030
:10415A007583018882E095F01819DBEC400022850E
:10416A000500850701090809080908C37B04758346
:10417A00018982E0F5F07583018882E095F01819CB
:10418A00DBEC2278C7E47583018882F008747175C4
:10419A0083018882F078C979AE7583018982E070DB
:1041AA0003024273F5F07404A47583018882F07ED9
:1041BA0001C20DD2127F267D0078C77583018882DD
:1041CA00E0FC78C87583018882E0FB78C9758301B1
:1041DA008882E0B46800500AFAE47583018882F0A4
:1041EA00802B7A68C394687583018882F078C875D1
:0641FA0083018882E0C38E
:1042000034687583018882F0187583018882E034F0
:10421000007583018882F0C002C006124C7BD00674
:10422000D002EF704E7D007404F5F0EA84FB7FBB92
:10423000C006C005C003124169D003D005D00650A6
:104240001D05060D0D0D0DDBE578C975830188820E
:10425000E060030241BB74FFF5077400FD22850690
:1042600007EF6401600D78AE7583018882E0C39F1B
:1042700004FD227400F507FD2212418DED701CEF44
:104280006016D212C20D782B7400F67C007B017A86
:10429000017F267D00124BC10245D678BFEF7583A2
:1042A000018882F078C0ED7583018882F078BF794B
:1042B000C27583018882E014C3F5F07402A475838B
:1042C000018982F019E5F07583018982F0C30975CF
:1042D00083018982E034057583018982F019758331
:1042E000018982E034007583018982F079C378C046
:1042F0007583018882E0C3F5F07402A47583018997
:1043000082F078BF79C57583018882E014C3F5F027
:104310007404A47583018982F019E5F0758301891D
:1043200082F0C3097583018982E034717583018944
:1043300082F0197583018982E034007583018982D6
:10434000F079C678C07583018882E0C3F5F0740403
:10435000A47583018982F078CB7405758301888206
:10436000F018E47583018882F078C3758301888230
:10437000E0B43400506BC20DD2127F267D0078C1AC
:104380007583018882E0FC78C27583018882E0FB36
:1043900078C37583018882E0FA124C7BEF600302D8
:1043A00045D6D212C20D7D2B7F0078C3758301885C
:1043B00082E0FB12578A78CA7583018882E0FC7814
:1043C000CB7583018882E0FB78C37583018882E026
:1043D000FA7F267D00124BC1EF700302448A02452A
:1043E000D6C20DD2127F267D0078C17583018882E6
:1043F000E0FC78C27583018882E0FB7A34124C7B42
:10440000EF60030245D6D212C20D7D2B7F007B34B4
:1044100012578A78CA7583018882E0FC78CB75834D
:0F442000018882E0FB7A347F267D00124BC1EFCA
:10442F0060030245D678C27583018882E0C33434B5
:10443F007583018882F0187583018882E0340075D6
:10444F0083018882F078C37583018882E0C3943436
:10445F007583018882F0602378CB7583018882E0B1
:10446F00C334347583018882F0187583018882E024
:10447F0034007583018882F002436978CB747175BB
:10448F0083018882F018E47583018882F078C675FD
:10449F0083018882E0B43400506BC20DD2127F26A4
:1044AF007D0078C47583018882E0FC78C57583012F
:1044BF008882E0FB78C67583018882E0FA124C7B14
:1044CF00EF60030245D6D212C20D7D2B7F0078C656
:1044DF007583018882E0FB12578A78CA7583018839
:1044EF0082E0FC78CB7583018882E0FB78C6758308
:1044FF00018882E0FA7F267D00124BC1EF60030234
:10450F0045D60245BAC20DD2127F267D0078C475FA
:10451F0083018882E0FC78C57583018882E0FB7A8D
:10452F0034124C7BEF60030245D6D212C20D7D2BA5
:10453F007F007B3412578A78CA7583018882E0FC2A
:05454F0078CB7583012B
:104554008882E0FB7A347F267D00124BC1EF7072B3
:1045640078C57583018882E0C334347583018882F9
:10457400F0187583018882E034007583018882F025
:1045840078C67583018882E0C39434758301888278
:10459400F0602378CB7583018882E0C3343475835B
:1045A400018882F0187583018882E03400758301E4
:1045B4008882F002449CD212C20D78C075830188AF
:1045C40082E0782BF67C007B017A017F267D001245
:1045D4004BC122C20DD2127F267D007C007B057A5E
:1045E40034124C7BEF60030246A4D212D20D7D2B11
:1045F4007F007B3412578A7C007B057F267D007AFE
:1046040034124BC16003024A4AC20DD2127F267D86
:10461400007C007B397A34124C7BEF60030246A4A1
:10462400D212D20D7D2B7F007B3412578A7C007B03
:10463400397F267D007A34124BC1EF6003024A4A67
:10464400C20DD2127F267D007C007B007A05124CBD
:104654007BEF704CD212D20D7D2B7F007B0512575D
:104664008A7C007B007F267D007A05124BC1EF60B7
:0E46740003024A4AC20DD2127F267D007C004E
:104682007B6D7A04124C7BEF7018D212D20D7D2B07
:104692007F007B0412578A7C007B6D7F267D007A27
:1046A20004EF22850700850501097583018882E0F0
:1046B20075F002A47583018982F019E5F075830112
:1046C2008982F022850700850501097583018882A8
:1046D200E075F004A47583018982F019E5F0758311
:1046E200018982F022850700850501090875830189
:1046F2008882E075F004A485F00A7583018982F04E
:1047020018197583018882E075F004A4C3250A751F
:1047120083018982F02278AB79AD7583018882E0CA
:104722007583018982F008097583018882E07583A7
:10473200018982F0D212C20D7F267D007BDF7A01D1
:10474200124BEBD212C20D7F267D007BEF7A07124D
:104752004BEBC20DD2127F267DAF7C007B007A0527
:10476200124C7BEF6003024A4A78B075830188825B
:10477200E0B4F0004003024A4A78B07583018882AF
:10478200E0602478AD79B27B027583018882E0F51E
:10479200F07583018982E065F0700C0809DBEAC2DA
:0947A2000D124B08024A4A78B0DE
:1047AB007583018882E07037E478B4758301888261
:1047BB00F00874057583018882F079B778B5758335
:1047CB00018882E0C3346C7583018982F0181975F6
:1047DB0083018882E034007583018982F0804E7FEB
:1047EB00B07DB41246A578B57583018882E0C334D9
:1047FB00057583018882F0187583018882E0340087
:10480B007583018882F07FB07DB61246C678B77586
:10481B0083018882E0C334717583018882F0187537
:10482B0083018882E034007583018882F0D212C242
:10483B000D7D2B7FAD7B0212578AC378B575830133
:10484B008882E0FB187583018882E0FC7F267D005F
:10485B007A02124BC1EF6003024A4AD212C20D7D9B
:10486B002B7F867B0412578AC378B77583018882A6
:10487B00E0FB187583018882E0FC7F267D007A04BB
:10488B00124BC1EF6003024A4A78B0792B7421F7BF
:10489B00097583018882E004F70809758301888212
:1048AB00E0F778AD097583018882E0F70809758315
:0548BB00018882E0F716
:1048C000D212C20D7C007B007F267D007A05124B40
:1048D000C1EF6003024A4AD21B200A03024A4AD2AD
:1048E00012D20D7F267D007B107A01124BEBD21283
:1048F000D20D7F267D007B007A09124BEBD20DD2C0
:10490000127F267DAF7C007B007A05124C7BEF6026
:1049100003024A4A78B07583018882E0B4F000400F
:1049200003024A4A78B07583018882E0601F78AD3F
:1049300079B27B027583018882E0F5F07583018985
:1049400082E065F070070809DBEA024A4A78B07530
:1049500083018882E07037E478B47583018882F03F
:104960000874057583018882F079B778B57583017D
:104970008882E0C3346C7583018982F018197583CD
:10498000018882E034007583018982F0804E7FB017
:104990007DB41246A578B57583018882E0C33405DD
:1049A0007583018882F0187583018882E034007570
:1049B00083018882F07FB07DB61246C678B77583D2
:1049C000018882E0C334717583018882F018758391
:1049D000018882E034007583018882F0D212D20D02
:0C49E0007D2B7FAD7B0212578AC378B597
:1049EC007583018882E0FB187583018882E0FC7F67
:1049FC00267D007A02124BC1EF704378B0792B748C
:104A0C0021F7097583018882E004F7080975830191
:104A1C008882E0F778AD097583018882E0F7080990
:104A2C007583018882E0F7D212D20D7C007B007F67
:104A3C00267D007A05124BC1EF7003126D19228589
:104A4C00070074FD7583018882F00808EB758301FB
:104A5C008882F00874017583018882F008740375EC
:104A6C0083018882F008E82BF8C003C007EB24050B
:104A7C00FBC207125923D007D003700022789A7416
:104A8C00557583018882F07899E47583018882F0EA
:104A9C00124AF853923F439140C2A31276B1127658
:104AAC00B01276B3C0077FFFDFFEDFFEDFFEDFFE56
:104ABC00DFFEDFFEDFFEDFFEDFFEDFFED00712765D
:104ACC00B41276B21276B81276BB1276BC22789AF1
:104ADC00E47583018882F07899E47583018882F00B
:104AEC00124AFF53927F53917FD2A32275AB087564
:0C4AFC00AAFF2275AB0875AAFF22222237
:104B080078B07583018882E07037E478B4758301E2
:104B18008882F00874057583018882F079B778B5C2
:104B28007583018882E0C3346C7583018982F0182B
:104B3800197583018882E034007583018982F080C9
:104B48004E7FB07DB41246A578B57583018882E0A2
:104B5800C334057583018882F0187583018882E063
:104B680034007583018882F07FB07DB61246C6781E
:104B7800B77583018882E0C3346D7583018882F03C
:104B8800187583018882E034007583018882F0D229
:104B980012C20D7D2B7F867B0412578AC378B775A6
:104BA80083018882E0FB187583018882E0FC7F26F8
:094BB8007D007A04124BC1EF22CA
:10732500EB6015C2AFEFF875C78975C5011273F229
:10733500F608A3DBF812741D22EB6022C2AFEFF84A
:1073450075C78975C5011273F2C083C08275830143
:107355008882F0D082D08308A3DBEB12741D22E56E
:1073650083B472005003020034B4740050F8EB602B
